:030000000201E317
:0C01E300787FE4F6D8FD75811D02022A29
:10026F00010926011728010A24041A0000000004BE
:10027F001300000000011800010800040F00000027
:07028F0000040B0000000059
:10029700E4FFD280D281D2822082010FEF25E0FFD6
:1002A700208103430701EF25E0FF20800343070177
:0402B70074232FFF7E
:0102BB002220
:1002DA00C2AF438902758CCE758ACED28CD2A9D28E
:0202EA00AF2241
:03000B000202BC32
:1002BC00C0E0C0D0E51D2432F51DE4351CF51CE46E
:0E02CC00351BF51BE4351AF51AD0D0D0E03200
:0902FD00C2AFD288D2A8D2AF2210
:03000300020006F2
:03000600B2903283
:10000E00C292C291D2901202FD1202DA851D16859D
:10001E001C15851B14851A13C3E51D9516FFE51CCB
:10002E009515FEE51B9514FDE51A9513FC7B407A9C
:10003E0042790F7800D31202EC50DD1202978F191D
:10004E00851D16851C15851B14851A13AF0AEF33F3
:10005E0095E0FEAD197C00C3ED9FEE6480F87480D0
:10006E00984013AB17EB3395E0FAD3ED9BEA64801F
:10007E00F87480984003751802C3ED9FEE6480F803
:10008E00EC6480984019AF09EF3395E0FED3ED9FF5
:10009E00EE6480F8EC6480985005E4F518F508AF2E
:1000AE0009EF3395E0FED3ED9FEE6480F8EC6480AB
:1000BE0098403FE51864026039E508700F85160E0A
:1000CE0085150D85140C85130B750801C3E5169562
:1000DE000EFFE515950DFEE514950CFDE513950B3C
:1000EE00FC7B807A84791E7800C31202EC50037573
:1000FE001801E5187066C3E5169512FFE515951102
:10010E00FEE5149510FDE513950FFC7B807A96792C
:10011E00987800C31202EC503F8516128515118592
:10012E00141085130FD292851D16851C15851B1470
:10013E00851A13C3E51D9516FFE51C9515FEE51BE7
:10014E009514FDE51A9513FC7B207AA179077800AA
:10015E00D31202EC50DDC292C291C292E518B401E4
:10016E0002D292E51864026003020049D291D29243
:10017E00851D16851C15851B14851A13C3E51D9543
:10018E0016FFE51C9515FEE51B9514FDE51A951356
:10019E00FC7B407A42790F7800D31202EC50DDC21C
:1001AE0092851D16851C15851B14851A13C3E51D16
:1001BE009516FFE51C9515FEE51B9514FDE51A95A4
:1001CE0013FC7B807A84791E7800D31202EC5003E4
:0501DE0002004980D879
:1001EF0002000EE493A3F8E493A34003F68001F218
:1001FF0008DFF48029E493A3F85407240CC8C33311
:10020F00C4540F4420C8834004F456800146F6DFDF
:10021F00E4800B010204081020408090026FE47EFE
:10022F00019360BCA3FF543F30E509541FFEE493D4
:10023F00A360010ECF54C025E060A840B8E493A39B
:10024F00FAE493A3F8E493A3C8C582C8CAC583CAC6
:10025F00F0A3C8C582C8CAC583CADFE9DEE780BE7E
:010296000067
:1002EC00EB9FF5F0EA9E42F0E99D42F0E89C45F068
:0102FC0022DF
:00000001FF
