:100000000C942A000C9400000C9400000C94000046
:100010000C9400000C9400000C9400000C94000060
:100020000C9400000C9400000C9453000C940000FD
:100030000C9400000C9400000C9400000C94000040
:100040000C9400000C9400000C9400000C94000030
:100050000C940000F894EE27ECBBF1E0FBBFEBBF83
:10006000E5BF8DE0A2E0BB27ED938A95E9F780E03C
:1000700094E0A0E6ED930197E9F7EFE5EDBFE4E04A
:10008000EEBFC0E6D1E00C948B00AA93E881E06259
:10009000E7B98BE18A95F1F7369A349BFECF349A13
:1000A000E5B1219608950A921A92FA926A937A9388
:1000B0008A939A93AA93BA93EA93FA93EFB7EA933F
:1000C0001A930A93A0E0E1DF0E2F1FB1E12FF0E0B9
:1000D000309711F40FB90FC0E130A0E0FA0719F41E
:1000E000E2B3A1E006C0E230A0E0FA0721F4E2B3F7
:1000F000A2E0EA27E2BB09911991E991EFBFF991DA
:10010000E991B991A9919991899179916991F99020
:10011000199009901895E0E0EABBEBBBE0E4E7BB7F
:10012000E0E0E8BBE4BBE5BBE3E0E1BBE0E0E2BB71
:10013000E3BFE2BFECBFEFBDEEBDEDBDECBDE7BD83
:10014000E6BDEBBDEABDE9BDE8BDE2BDE5BDE4BD90
:10015000E3BDE9BFE5BFE4BFEAB9E0E8E8B9E0E242
:10016000E7B9E3E8E6B9E0E0E0BFE1ECEDB9E0E0F3
:10017000EEB9EEB1EFB1E0E0E6BF7894FFCFFFCF8C
:00000001FF
