:080000000C9445000C94000073
:100008000C9400000C9400000C9400000C94000068
:100018000C9400000C9400000C9400000C94000058
:100028000C941E010C94B6000C9400000C94000073
:100038000C9400000C9400000C9400000C94000038
:100048000C9400000C9400000C9400001027E803A6
:1000580064000A0001000010000110000100000007
:10006800000000004E6869657420646F3A20000043
:100078002564000001000200660004000400680016
:100088000000F894EE27ECBBF1E0FBBFEBBFE5BF47
:100098008DE0A2E0BB27ED938A95E9F780E094E034
:1000A800A0E6ED930197E9F7ECE7F0E085919591EB
:1000B800009761F0A591B59105901590BF01F001E9
:1000C80005900D920197E1F7FB01F0CFEFE5EDBF49
:1000D800E4E0EEBFC0E6D1E00C942201AA93E981E6
:1000E800F0E0309739F4C3980E945003C39AE1E0D6
:1000F800F0E00AC0E130A0E0FA0731F4C4980E94A9
:100108005003C49AE1E0F0E022960895AA935D9B1B
:10011800FECFE881ECB98CC0BA93AA931A9310E089
:100128000E945603EC91E03031F00E945603AC91E6
:10013800EDDF1F5FF5CFAAE0E9DFADE0E7DF0FC035
:10014800BA93AA931A9310E00E945603EC91E030F8
:1001580031F00E945603AC91D9DF1F5FF5CF1881AB
:10016800239608950A921A92FA926A937A938A9336
:100178009A93AA93BA93EA93FA93EFB7EA931A93E6
:100188000A931BB10CB1E12FEC7189F4E52D53945E
:10019800F0E0E05AFE4F0083E8E0E51509F4552445
:1001A8007394E8E0E71519F47724689420F8E02FB1
:1001B800F0E0E133A0E0FA0729F4E0E0EA93A1E0F7
:1001C8008DDF1AC0E233A0E0FA0729F4E0E0EA93F1
:1001D800A2E084DF11C0E333A0E0FA0729F4E1E0EC
:1001E800EA93A1E07BDF08C0E433A0E0FA0721F43A
:1001F800E1E0EA93A2E072DF09911991E991EFBF7A
:10020800F991E991B991A991999189917991699116
:10021800F990199009901895AA93E881E062E7B9D6
:100228008BE18A95F1F7369A349BFECF349AE5B183
:10023800219608951A931FB119911895E0E0EABB29
:10024800EBBBE8EBE7BBE0E0E8BBE4BBE5BBE1BB4D
:10025800E2BBE3BFE2BFECBFEFBDEEBDEDBDECBD61
:10026800E7BDE6BDEBBDEABDE9BDE8BDE2BDE5BD64
:10027800E4BDE3BDE9BFE5BFE4BFEBB9E8E9EAB92E
:10028800E6E8E0BDE0E0E0BDE3E3E9B9E0E8E8B9CD
:10029800E0E2E7B9E3E8E6B9E0E0E0BFE1EDEDB9B7
:1002A800E0E0EEB9EEB1EFB1E0E0E6BF7894A8EE99
:1002B800B3E00E948803E0E0EA93A0E00FDFE1E00A
:1002C800EA93A0E00BDF61978BE0A5E0B0E0ECE6F5
:1002D800F0E00E94B503A0E09FDFE88BFE01FA93EF
:1002E800EA93E8E7F0E0FA93EA93EC89FF276627B8
:1002F80077270E94A20384E00E9403032896DE0168
:1003080015961EDFDE0108DFA4EFB1E00E94880326
:100318006196D9CFFFCFBA93AA931A930A93AA8169
:10032800BB8112960E949A03309759F1AA81BB812A
:1003380014960E949A038F01309761F00230E0E032
:100348001E0798F0F80131978F01AA81BB81149696
:10035800ED93FC93AA81BB811296ED91FD913196A4
:10036800FE93EE933197AC81A083AA81BB810E9452
:100378009A03FF232AF0ED91FD913196FE93EE93B7
:1003880006C0AA81BB81EFEFFFEFED93FC931981C3
:10039800088125960895BA93AA9326970E94A703E1
:1003A80010E0AC85BD85E0E0F0E0ED93FC93EA89D0
:1003B800FB893196EA8BFB8B3197E4912E2FE03045
:1003C80009F415C1E12FE03039F4253211F411E0B8
:1003D80002C00E945C030AC1E130A9F4253219F475
:1003E8000E945C0302C112E040E000E02D3211F4EB
:1003F80001E0FCC02B3211F44BE2F8C0203211F4BA
:1004080040E2F4C002C0E23039F450E013E0203397
:1004180011F40068EBC003C0E33009F0E7C02033F3
:1004280010F02A3308F007C0AAE05A9F502DE22F97
:10043800E0535E0FDBC0E22FE33649F40E9463030A
:10044800E889F989A481AA930E946903CEC0E33799
:1004580041F40E9463030E946F030E9437031E2F1A
:100468000AC0E03761F40E9463030E946F030E9490
:1004780043031E2F086002600F7730E034C0E43673
:1004880011F0E93611F4046002C0E53731F4E4E50F
:10049800F0E0EE83FF8315E00CC0E83511F4086046
:1004A80003C0E83709F0A1C0EEE5F0E0EE83FF8372
:1004B80014E002FF14C00E9463030E947903AB8515
:1004C800AA233AF4EA85FB850E949603EA87FB870C
:1004D8004DE2403011F01F5F01C00B7F04C00E9445
:1004E80063030E94790300FD11C0151778F407FF14
:1004F80008C002FF04C00B7F242F115001C020E365
:1005080001C020E20E945C035150EFCF312F01FF60
:1005180017C03030A1F003FF06C0EE81FF8125919E
:10052800EE83FF8305C0AE81BF812D91AE83BF836B
:100538000E945C03503009F051503150EACF4BC053
:1005480020E3EE81FF810E949E03E887F987EE8110
:10055800FF813296EE83FF83E885F985AA85BB85FE
:10056800AE17BF0750F02F5FA885B985EA85FB85D0
:10057800EA1BFB0BEA87FB87EFCF2A3328F003FF40
:1005880002C0295F01C0295D04FD1AC0213320F48F
:10059800A885B985119709F409C0531710F000FF11
:1005A80001C013C020E207FF0BC020E3006102FF77
:1005B80007C00B7F4A930E946903503009F05150DD
:1005C8000E945C03503009F051503150A885B9851C
:1005D800129708F0B5CF00FF08C0503031F05150E5
:1005E800E0E2EA930E946903F8CF10E0E0CEAC8520
:1005F800BD850E949A030E94AE0364960895FF92F7
:10060800F82E26970E94A9030E948103309719F4B7
:10061800EFEFFFEF23C0DE0116960E9492038D01D3
:100628000E948103EE83FF83E0E0E887E987DE012B
:100638001A960E9492030E949A03FA93EA931A93D5
:100648000A93EFE8F1E0FA93EA93DE011A96A3DE43
:100658009F01AE81BF81E0E0EC93F9010E94B003F5
:100668002A96FF900895BA93AA93A991B991EE2773
:10067800FF276D91662311F03196FBCF0895BA9349
:10068800AA93AA27BB27E991F9910590002011F0B8
:100698001196FBCFFD010895E881EFB9A4E1B0E020
:1006A8000C948803A981BA81EE27A10FBE1F089573
:1006B8002A93AD85BE85EF85F88909950895E8895F
:1006C800F9893497E88BF98B0895AD85BE85EF8558
:1006D800F88909950895A889B98914960E949A03FA
:1006E800EE83FF83AE81BF810895A889B9891496E6
:1006F8000E949A03EA87FB870895DE011C960E94F0
:1007080092030E949A030895109639F080ED97E0BD
:100718000197F1F7A8951197C9F708950024AF0D2F
:10072800B01D0895F195E195F0400895ED91FC9183
:10073800119708950590F491E02D08957A936A939E
:10074800FA93EA9308955A934A933A932A931A93F9
:100758000A9308955D814C813B812A811981088122
:100768000895AC0FBD1F05900D928A95E1F7089585
:00000001FF
