:020000040800F2
:1000000070060020290200088106000893030008FA
:1000100075060008E3020008C90800080000000097
:10002000000000000000000000000000C5060008FD
:10003000E70200080000000083060008B50700087A
:10004000430200084302000843020008430200087C
:10005000430200084302000843020008430200086C
:10006000430200084302000843020008430200085C
:10007000430200084302000843020008430200084C
:10008000430200084302000843020008430200083C
:10009000430200084302000843020008430200082C
:1000A000430200084302000843020008430200081C
:1000B000430200084302000843020008430200080C
:1000C00043020008430200084302000843020008FC
:1000D00043020008430200084302000843020008EC
:1000E00043020008430200084302000843020008DC
:1000F00043020008430200084302000843020008CC
:1001000043020008430200084302000843020008BB
:1001100043020008430200084302000843020008AB
:10012000430200084302000843020008430200089B
:10013000430200084302000843020008430200088B
:10014000430200084302000843020008430200087B
:10015000430200084302000843020008430200086B
:10016000430200084302000843020008430200085B
:10017000430200084302000843020008430200084B
:10018000430200084302000800F002F800F03CF8C7
:100190000AA090E8000C82448344AAF10107DA45E2
:1001A00001D100F031F8AFF2090EBAE80F0013F0F8
:1001B000010F18BFFB1A43F001031847040A00009F
:1001C000240A0000103A24BF78C878C1FAD8520730
:1001D00024BF30C830C144BF04680C6070470000C1
:1001E0000023002400250026103A28BF78C1FBD840
:1001F000520728BF30C148BF0B6070471FB500F0E1
:10020000D9FC1FBD10B510BD00F031F81146FFF745
:10021000F5FF00F06FFC00F04FF803B4FFF7F2FFBA
:1002200003BC00F057F80000094880470948004720
:10023000FEE7FEE7FEE7FEE7FEE7FEE7FEE7FEE796
:10024000FEE7FEE704480549054A064B70470000F3
:10025000B90700088901000870000020700600201E
:10026000700200207002002070477047704775468A
:1002700000F02CF8AE4605006946534620F0070012
:10028000854618B020B5FFF7DDFFBDE820404FF0F0
:1002900000064FF000074FF000084FF0000B21F070
:1002A0000701AC46ACE8C009ACE8C009ACE8C0093D
:1002B000ACE8C0098D46704710B50446AFF3008026
:1002C0002046BDE81040FFF7A8BF00000048704777
:1002D0000C00002001491820ABBEFEE726000200FA
:1002E000704700BFFEE77047F0B50A4600210023C3
:1002F000002400BF3DE0012505FA01F3156805EA79
:1003000003049C4234D105684F000326BE40B54328
:10031000056015794E00B5400668354305601579CE
:10032000012D02D01579022D16D185684F000326C4
:10033000BE40B543856055794E00B540866835436B
:100340008560456801268E40B543456045689679CD
:100350008E40B6B235434560C5684F000326BE40A7
:10036000B543C560D5794E00B540C6683543C56014
:10037000491C1029BFD3F0BD0246002013690B4071
:100380000BB1012000E000207047418370470183DA
:10039000704700BFFEE7000010B504461CB1012005
:1003A0000449C87002E000200249C87000F00AF851
:1003B00010BD00000000002010B5012000F076F80C
:1003C00010BD000010B500240EE00B48007840106E
:1003D000094908700948005D20B10846007840F0DE
:1003E00080000870601CC4B2082CEEDB01220249B8
:1003F0004E2000F0CEF810BD0800002000000020C4
:1004000010B5322000F062FA00F036F9002404E062
:1004100000201B490855601CC4B2082CF8DBFFF70C
:10042000D1FF002016490870FFF7CCFF00201449C7
:100430004870FFF7C7FF032000F050F8052000F0D8
:1004400045FA032000F04AF8012000F03FFA0320AB
:1004500000F044F8012000F039FA022000F03EF8E4
:10046000012000F033FA282000F020F80C2000F0E2
:100470001DF80E2000F01AF8012000F017F810BD4A
:100480000000002010B5C02000F010F810BD10B51D
:10049000044607E0207820B114F8010B00F0D2F8F0
:1004A00000E000E0F6E700BF10BD000010B5044614
:1004B00000F092F8002008490870FFF783FF002041
:1004C00005494870FFF77EFF201100F007F820462D
:1004D00000F004F810BD00000000002010B5044634
:1004E00004F0080018B101201749C87102E000208B
:1004F0001549C87104F0040018B10120124988712F
:1005000002E000201049887104F0020018B10120B7
:100510000D49487102E000200B49487104F00100C8
:1005200018B101200849087102E00020064908714D
:10053000012005498870FFF745FF002002498870B7
:10054000FFF740FF10BD0000000000202DE9F04142
:1005500007460D46164600F047FA384600F07EFA88
:1005600020B900F061FA0020BDE8F081002405E028
:10057000012000F0F1F92855601CC4B2701EA042A1
:10058000F6DC002000F0E8F9285500F04DFA0120D3
:10059000EAE72DE9F04107460D46164600F024FA39
:1005A000384600F05BFA20B900F03EFA0020BDE8C2
:1005B000F081002409E0285D00F050FA18B900F03D
:1005C00033FA0020F3E7601CC4B2B442F3DB00F05E
:1005D0002BFA0120EBE7000008B50120184908714B
:1005E00048718871C871FFF7EDFE0020144908704A
:1005F000FFF7E8FE012012494870FFF7E3FE00BF55
:1006000001200F498870FFF7DDFE012269464F2067
:10061000FFF79CFF00200A498870FFF7D3FE0120F6
:1006200007498870FFF7CEFE002005498870FFF764
:10063000C9FE9DF8000000F008000028E0D108BDC8
:100640000000002010B50446FFF7C6FF012008494E
:100650000870FFF7B7FE002005494870FFF7B2FEAB
:100660002011FFF73BFF2046FFF738FF10BD0000C9
:100670000000002000BFFEE710B500F04BF910BDF0
:100680007047704729B1064A12680243044B1A604A
:1006900004E0034A12688243014B1A60704700006D
:1006A0003038024029B1064A12680243044B1A60EE
:1006B00004E0034A12688243014B1A60704700004D
:1006C00040380240704700000CB5002001900090B7
:1006D0003448006840F480303249086000BF314837
:1006E000006800F4003000900198401C01900098D0
:1006F00018B90198B0F5A04FF1D12A48006800F46C
:10070000003010B10120009001E00020009000981E
:10071000012846D123484030006840F080502149EC
:10072000403108602048006840F440401E4908609D
:100730001C48083000681B490831086008460068FA
:1007400040F4004008600846006840F4A05008608B
:100750001648091F0860081F006840F08070091FD4
:10076000086000BF0F48006800F000700028F9D052
:1007700040F205700E4908600A480830006820F011
:1007800003000849083108600846006840F002008C
:10079000086000BF03480830006800F00C0008281B
:1007A000F8D10CBD003802400070004008544007EA
:1007B000003C02407047000010B51548006840F446
:1007C0007000134908601348006840F001001149A7
:1007D000086000200F49083108600E4800680E4983
:1007E00008400C4908600D48091D0860081F006892
:1007F00020F48020091F0860002006490C310860A1
:10080000FFF762FF4FF0006001498039086010BDBA
:1008100088ED00E000380240FFFFF6FE10300024B3
:1008200021B1028842F00102028004E002884FF602
:10083000FE731A40028070470146486A7047416261
:100840007047000000220288184B98420ED0184BC7
:1008500098420BD0B0F1804F08D0164B984205D08B
:10086000154B984202D0154B984204D14FF68F7326
:100870001A404B881A43124B984207D0114B9842AA
:1008800004D04FF6FF431A400B891A4302804B688D
:10089000C3620B880385054B984202D0044B9842F3
:1008A00001D18B7A038601238382704700000140C7
:1008B000000401400004004000080040000C00401B
:1008C000001000400014004000BFFEE710B50446D1
:1008D0000BE000210648FFF7B2FF00BF0448FFF716
:1008E000ABFFB0F57A7FF9D3641E002CF1D110BDB7
:1008F0000010004010B5044600210548FFF79FFF97
:1009000000BF0348FFF798FFA042FAD310BD0000D4
:10091000001000401CB501210846FFF7B3FE01207E
:100920008DF804008DF806000620009000208DF858
:10093000070003208DF8050069460648FFF7D4FC40
:1009400002210448FFF723FD04210248FFF71FFDA1
:100950001CBD00000000024070B505460221214880
:10096000FFF715FD0320FFF7C5FF00261BE060061B
:10097000040E04211B48FFF70AFD0320FFF7BAFF0E
:1009800002211848FFF7F8FC08B144F001040220E6
:10099000FFF7B0FF04211348FFF7F7FC0520FFF72E
:1009A000A9FF701CC6B2082EE1DB25B102210D485B
:1009B000FFF7EBFC03E002210A48FFF7E8FC032005
:1009C000FFF798FF04210748FFF7E1FC0520FFF738
:1009D00091FF04210348FFF7D8FC0520FFF78AFFA9
:1009E000204670BD0000024010B504210D48FFF7FD
:1009F000CEFC0320FFF77EFF02210A48FFF7C7FC69
:100A00000320FFF777FF02210648FFF7BEFC032013
:100A1000FFF770FF04210348FFF7B7FC0320FFF73F
:100A200069FF10BD0000024010B502210A48FFF71F
:100A3000ACFC0320FFF75EFF04210748FFF7A7FC8B
:100A40000320FFF757FF02210348FFF7A0FC032014
:100A5000FFF750FF10BD00000000024070B50446D3
:100A6000002620E004F0800020B102212048FFF79A
:100A70008EFC03E002211E48FFF787FC0320FFF7EE
:100A800039FF04211A48FFF782FC0520FFF732FFE7
:100A900004211748FFF779FC0220FFF72BFF6006BF
:100AA000040E701CC6B2082EDCDB02211048FFF7D2
:100AB0006EFC0320FFF71EFF04210D48FFF767FCC3
:100AC0000320FFF717FF02210948FFF755FC08B183
:100AD000002500E001250220FFF70CFF0421044857
:100AE000FFF753FC0520FFF705FF284670BD000007
:100AF0000000024086B001210820FFF7C3FD01205D
:100B00008DF8140000208DF816004FF480500490EA
:100B100000208DF8170003208DF8150004A91B484C
:100B2000FFF7E2FB01211020FFF7BCFD5320ADF8D9
:100B300004004FF6FF70029001A91548FFF782FEEE
:100B400001211348FFF76CFEFFF75AFCFFF734FC56
:100B50000120FFF721FC0FA0FFF799FCFFF792FCA3
:100B600010A0FFF794FC0FE04FF480510748FFF707
:100B70000EFC6420FFF7AAFE4FF480510348FFF7F4
:100B800004FCC820FFF7A2FEEEE70000000C0240C4
:100B90000010004053544D333246343037564754DA
:100BA000360000004932433A20504131202D205078
:100BB000413200004FF04070E1EE100A7047000033
:100BC000E00B0008000000200C000000C401000839
:100BD000EC0B00080C00002064060000E001000897
:0C0BE00000000000000000000000000009
:040000050800018965
:00000001FF
