:020000040000FA
:100000000C9463000C948B000C948B000C94F108FE
:100010000C94F1080C94F1080C948B000C948B0058
:100020000C948B000C948B000C948B000C948B0024
:100030000C948B000C948B000C948B000C948B0014
:100040000C94A7080C948B000C9475080C944F0822
:100050000C948B000C948B000C948B000C948B00F4
:100060000C9469090C948B00000000002400270008
:100070002A0000000008000201000003040700003D
:1000800000000000000000000000230026002900FE
:1000900000000000250028002B00040404040404D0
:1000A0000404020202020202030303030303010227
:1000B00004081020408001020408102001020408F6
:1000C0001020CD0AEE1011241FBECFEFD8E0DEBF06
:1000D000CDBF11E0A0E0B1E0E2E6F6E202C005909B
:1000E0000D92AC39B107D9F723E0ACE9B1E001C01A
:1000F0001D92AE3AB207E1F710E0C2E6D0E004C0CC
:100100002197FE010E940A13C136D107C9F70E9448
:10011000BF0B0C9424130C94000008950895AF9223
:10012000BF92CF92DF92EF92FF920F931F93CF93E4
:10013000DF936C017B018B01040F151FEB015E0146
:10014000AE18BF08C017D10759F06991D601ED91DB
:10015000FC910190F081E02DC6010995892B79F77A
:10016000C501DF91CF911F910F91FF90EF90DF902C
:10017000CF90BF90AF900895FC01538D448D252FF3
:1001800030E0842F90E0821B930B541710F0CF9631
:10019000089501970895FC01918D828D981761F063
:1001A000A28DAE0FBF2FB11D5D968C91928D9F5F7A
:1001B0009F73928F90E008958FEF9FEF0895FC0159
:1001C000918D828D981731F0828DE80FF11D858D0C
:1001D00090E008958FEF9FEF0895FC01918D228D9F
:1001E000892F90E0805C9F4F821B91098F73992724
:1001F000089583EB92E00E94ED0021E0892B09F441
:1002000020E0822F089580E090E0892B29F00E9461
:10021000F90081110C9400000895FC01A48DA80F31
:10022000B92FB11DA35ABF4F2C91848D90E0019638
:100230008F739927848FA689B7892C93A089B18958
:100240008C91837080648C93938D848D981306C0F9
:100250000288F389E02D80818F7D80830895EF925D
:10026000FF920F931F93CF93DF93EC0181E0888F70
:100270009B8D8C8D98131AC0E889F989808185FF40
:1002800015C09FB7F894EE89FF896083E889F989E2
:1002900080818370806480839FBF81E090E0DF91E4
:1002A000CF911F910F91FF90EF900895F62E0B8D37
:1002B00010E00F5F1F4F0F731127E02E8C8D8E11F2
:1002C0000CC00FB607FCFACFE889F989808185FF59
:1002D000F5CFCE010E940D01F1CFEB8DEC0FFD2F7C
:1002E000F11DE35AFF4FF0829FB7F8940B8FEA8914
:1002F000FB8980818062CFCFCF93DF93EC01888D23
:100300008823B9F0AA89BB89E889F9898C9185FD90
:1003100003C0808186FD0DC00FB607FCF7CF8C911E
:1003200085FFF2CF808185FFEDCFCE010E940D01C8
:10033000E9CFDF91CF91089590E0FC01EE58FF4F97
:100340002491FC01E255FF4F3491FC01E656FF4F2A
:10035000E491EE23C9F0222339F0233001F1A8F40F
:10036000213019F1223029F1F0E0EE0FFF1FE057A4
:10037000FF4FA591B4918FB7F894EC91611126C00D
:1003800030953E233C938FBF08952730A9F0283045
:10039000C9F0243049F7809180008F7D03C080919F
:1003A00080008F7780938000DFCF84B58F7784BD06
:1003B000DBCF84B58F7DFBCF8091B0008F778093AA
:1003C000B000D2CF8091B0008F7DF9CF3E2BDACF35
:1003D000CF93DF9390E0FC01E255FF4F24918656C6
:1003E0009F4FFC0184918823D1F090E0880F991FE2
:1003F000FC01E859FF4FA591B491FC01E057FF4F74
:10040000C591D49161110EC09FB7F8948C91E22FE1
:10041000E0958E238C932881E223E8839FBFDF91B0
:10042000CF9108958FB7F894EC91E22BEC938FBFA6
:10043000F6CF3FB7F8948091250290912602A091C3
:100440002702B091280226B5A89B05C02F3F19F0BE
:100450000196A11DB11D3FBFBA2FA92F982F882744
:10046000BC01CD01620F711D811D911D42E0660F1F
:10047000771F881F991F4A95D1F708958F929F92F1
:10048000AF92BF92CF92DF92EF92FF926B017C010D
:100490000E9419024B015C01C114D104E104F10472
:1004A000B9F00E941902681979098A099B09683E06
:1004B00073408105910580F321E0C21AD108E1085B
:1004C000F10888EE880E83E0981EA11CB11CE4CFD1
:1004D000FF90EF90DF90CF90BF90AF909F908F9064
:1004E00008952FB7F89460912102709122028091B3
:1004F0002302909124022FBF08950F931F938091A0
:100500005C0390915D03DC01ED91FC910084F18529
:10051000E02D0995892B09F4D7C060E070E0CB018C
:100520000E943E0220917A0380915C0390915D03CA
:10053000DC01ED91FC910284F385E02D21110BC0CB
:100540000995809366038E37D1F680917A038F5F89
:1005500080937A03D4CF099590917A03E92FF0E044
:10056000E45AFC4F82879230B9F09930D9F091303B
:10057000A9F48F3F99F010927A0381E080937C0375
:1005800010927F0310927E03809380031092810368
:1005900080E01F910F910895863069F79F5F9093D7
:1005A0007A03ADCF8F3E39F72091680380916703BE
:1005B000280F3327331FE0916903C9018E0F911D66
:1005C00020916A03280F392F311D40916B0350E0B1
:1005D000240F351F80916C0390E060916D0370E0F3
:1005E000762F6627F0916E036F0F711D280F391F4C
:1005F0003195219531096217730709F0BCCF10922C
:100600007A03E13419F4109281032FC0E0937D0343
:10061000542F4427840F951F90937F0380937E036C
:10062000EA53E63108F046C0F0E0E75EFC4F0C9478
:100630000A1346034E0358032F0358033803560387
:100640005A035803580358035803580358035803D0
:1006500058035A035803580358035803580385E0B6
:1006600080937C0381E0809380038091800391CF0D
:1006700080FF02C089E0F4CF81FF02C084E0F0CFA8
:1006800083709927892B89F38AE0EACF80FF02C023
:1006900087E0E6CF81FFE9CF82E0E2CF80FF02C0B2
:1006A00088E0DECF81FFE1CF83E0DACF86E0D8CFEC
:1006B0008BE0D6CF81E080937C0310927F03109271
:1006C0007E03809380039FCF80918103882369F20A
:1006D0000E94710200915E0310915F0320916003FC
:1006E00030916103601B710B820B930B00916203CD
:1006F00010916303209164033091650360177107C3
:100700008207930708F4B1CF10927A0310927C030A
:1007100010927F0310927E0381E036CF80937303A3
:10072000272F30E070937503609376034091720336
:1007300090917103490F5527551F840F952F911DD7
:1007400040917403840F911D820F931F680F792FBE
:10075000711D7195619571097093770360937803AA
:10076000442361F080918103882341F060E070E0D0
:10077000CB010E943E020E947D02F4CF80915C0377
:1007800090915D03DC01ED91FC910280F381E02DFD
:100790004AE050E060E773E009950E9471026093BF
:1007A0005E0370935F038093600390936103809175
:1007B000740391E0811101C090E090938103811155
:1007C00006C06AE070E080E090E00C943E0208957C
:1007D00020912F02309130022817390771F490913F
:1007E0002D0280912E02981741F0E0912D02F0E049
:1007F000E052FE4F808190E008958FEF9FEF0895C3
:100800000895EF92FF920F931F93CF93DF93DC0134
:100810005C96ED90FC905D97E114F10479F481E031
:1008200090E013969C938E93129790E080E0DF9176
:10083000CF911F910F91FF90EF9008955196ED91F8
:10084000FC91529750968C915097982F90950FB796
:100850005E962C915E97122F127021FD6095F89490
:100860002081112319F1282B2083E7012197F1F72B
:1008700028E0462F50E0308160FF1AC0382B3083CB
:10088000E7012197F1F7BA0175956795215089F72E
:10089000112381F08081892380830FBF5C968D9125
:1008A0009C910197F1F781E090E0C1CF2923DCCF43
:1008B0003923E5CF9081892BEFCF20912F02309102
:1008C00030022817390771F480912E0220912D02F1
:1008D00090E0805C9F4F821B910960E470E00E9471
:1008E000D412089590E080E0089520912F02309175
:1008F000300228173907B9F490912D0280912E0209
:10090000981789F0E0912D02F0E0E052FE4F8081CF
:1009100020912D0230E02F5F3F4F2F73332720931C
:100920002D0290E008958FEF9FEF08950895209194
:10093000BD01260F3327331F21323105ECF42091FE
:100940008902FC0190E080E0243069F082E00895A3
:10095000A091BD012191AC0143565E4FA40FB52F6C
:10096000B11D2C930196861798F38091BD01680FF5
:100970006093BD0180E0089581E00895109289029E
:1009800081E0809388021092630261E082E10E941C
:100990009C0161E083E10E949C01E9EBF0E0808131
:1009A0008E7F808380818D7F808388E48093B800F0
:1009B00085E48093BC000895CF93DF9391E09093FA
:1009C0009C018823B9F0C091B800D091BA00809101
:1009D000BC008A7B8093BC0060E082E10E949C01A5
:1009E00060E083E10E949C010E94BE04D093BA00A3
:1009F000C093B800DF91CF9108958F929F92AF92EC
:100A0000BF92CF92DF92EF92FF920F931F93CF93FB
:100A1000DF93D091B202D13208F0D7C0182FC09125
:100A2000B1020E9419026B017C018091890281113F
:100A30006BC082E080938902109388028FEF8093CD
:100A4000870210928602D0938502A1E9B2E0E5E622
:100A5000F2E080E0D81391C01092640280916402A9
:100A6000CC0FC82BC093640280916302813009F0DF
:100A700088C0109263020E9419026B017C01809170
:100A800064028093BB0080918B0290918C02A091B4
:100A90008D02B0918E02892B8A2B8B2BA1F00E94A4
:100AA000190200918B0210918C0220918D023091DD
:100AB0008E026C197D098E099F09061717072807F2
:100AC000390708F442C08091BC0083FDD8CF85EC83
:100AD0008093BC000E9419026B017C018091890205
:100AE000823009F450C0809187028F3F09F46FC0B3
:100AF00080918702803209F46CC080918702803334
:100B000009F469C084E026C080918B0290918C0228
:100B1000A0918D02B0918E02892B8A2B8B2B09F428
:100B200084CF0E94190280908B0290908C02A0903A
:100B30008D02B0908E026C197D098E099F09861670
:100B40009706A806B90608F070CF80918A020E9425
:100B5000DC0485E0109290021092B20210928F0293
:100B6000DF91CF911F910F91FF90EF90DF90CF9089
:100B7000BF90AF909F908F9008959D9191938F5FBC
:100B800069CF85EEA5CF80918B0290918C02A091C8
:100B90008D02B0918E02892B8A2B8B2B09F49ECF6C
:100BA0000E94190200918B0210918C0220918D02FB
:100BB00030918E026C197D098E099F09061717075F
:100BC0002807390708F08ACFC0CF81E0C3CF80E083
:100BD000C1CF82E0BFCF83E0BDCFE09132028091F0
:100BE0003102E81730F4F0E0ED5CFD4F808190E0D9
:100BF00008958FEF9FEF0895909132028091310216
:100C00002FEF3FEF981748F4E92FF0E0ED5CFD4F30
:100C1000208130E09F5F90933202C9010895809156
:100C2000310290913202891B990B0895CF92DF9285
:100C3000EF92FF920F931F93CF93DF937C01CB0131
:100C40008A0120918F02222389F0EB016B01C40EEF
:100C5000D51ECC15DD0569F06991D701ED91FC91A8
:100C60000190F081E02DC7010995F3CF642F0E9418
:100C70009704C801DF91CF911F910F91FF90EF90E2
:100C8000DF90CF900895CF93DF931F92CDB7DEB75B
:100C9000698320918F022223F9F02091B202203241
:100CA00058F021E030E0FC013383228390E080E0C3
:100CB0000F90DF91CF91089580919002E82FF0E09E
:100CC000EF56FD4F998190838F5F809390028093C0
:100CD000B20281E090E0ECCF61E0CE0101960E948B
:100CE0009704F7CFFC01248131E030938F022093E9
:100CF000B102109290021092B2028385682B80E5B7
:100D000093E00E94430681E00C94FD0490E080E0B3
:100D100008950F931F93CF938C01C62F0E947206E4
:100D20006C2F6460C8010E9472066C2F6B7FC80133
:100D30000E94720683EC90E00197F1F7CF911F912A
:100D40000F9108950F931F93CF93DF938C01D62FAC
:100D5000C42F607F642B0E94890680E1D89FB00178
:100D600011246C2BC801DF91CF911F910F910C942E
:100D7000890640E061E082EA93E00E94A2068BE3EC
:100D80009FE10197F1F70895CF93DF93CDB7DEB7D9
:100D900028970FB6F894DEBF0FBECDBF98E0E0E015
:100DA000F1E0DE01119601900D929A95E1F7909194
:100DB000AA03981708F48FEF90E0880F991F21E09D
:100DC00030E02C0F3D1F820F931FFC016081606893
:100DD00040E082EA93E028960FB6F894DEBF0FBE9B
:100DE000CDBFDF91CF910C94A20641E00E94A206F4
:100DF00081E090E008950F931F9390E0FC01E2558D
:100E0000FF4F6491FC01E656FF4FE491F0E0EE0FD6
:100E1000FF1FEA57FF4F8591949100E412E42FE001
:100E200030E0462F0E94880A611571058105910501
:100E300029F06F5F7F4F8F4F9F4F9F701F910F91D2
:100E40000895FB0101900020E9F73197AF01461B9F
:100E5000570BDC01ED91FC910280F381E02D0994A8
:100E60008F929F92AF92BF92EF92FF920F931F9338
:100E7000CF93DF93CDB7DEB7A1970FB6F894DEBF5F
:100E80000FBECDBF7C01FA01CB0119A2223008F4BC
:100E90002AE08E010F5D1F4F822E912CB12CA12CC8
:100EA000BF01A50194010E94E812F901CA016A304C
:100EB0000CF5605DD8016E938D01232B242B252B1F
:100EC00079F790E080E0109721F0BD01C7010E9402
:100ED0002107A1960FB6F894DEBF0FBECDBFDF91FC
:100EE000CF911F910F91FF90EF90BF90AF909F9087
:100EF0008F900895695CDECFCF92DF92EF92FF92E0
:100F00000F931F93CF93DF93EC016A017B01E8817C
:100F1000F9810190F081E02D6DE209958C01442763
:100F20005527BA014C195D096E097F092AE0CE01E7
:100F30000E943007800F911FDF91CF911F910F9179
:100F4000FF90EF90DF90CF900895AB01770F660B85
:100F5000770B77FD0C947C072AE00C943007BC01DA
:100F600082EA93E00C94210760E082E00E949C01F9
:100F700083E090E00197F1F761E082E00E949C013C
:100F800083E290E00197F1F760E082E00E949C012B
:100F900083E00E94FB062AE330E040E050E00E943C
:100FA000E8123093620220936102A901330F660BAD
:100FB000770B77FF36C083EB92E00E947C0764E5F5
:100FC00071E083EB92E00E94210760E084E00E94E0
:100FD0009C0183E090E00197F1F761E084E00E94DA
:100FE0009C0183E290E00197F1F760E084E00E94C9
:100FF0009C0185E00E94FB062AE330E040E050E0DF
:101000000E94E8128AE090E0821B930B4AE0489F1E
:101010009001499F300D11243093570220935602BE
:1010200008952AE083EB92E00E943007C8CF85ED57
:101030008093BC0080918B0290918C02A0918D02D4
:10104000B0918E020796A11DB11D23E0B695A7951C
:10105000979587952A95D1F72091BC0024FD03C070
:1010600010928902089540918B0250918C026091F8
:101070008D0270918E02452B462B472B69F300970A
:10108000A105B10541F025E32A95F1F7000001978C
:10109000A109B109E1CF80918A020C94DC041F926E
:1010A0000F920FB60F9211242F933F934F935F939C
:1010B0006F937F938F939F93AF93BF93EF93FF9320
:1010C00083EB92E00E940D01FF91EF91BF91AF91F0
:1010D0009F918F917F916F915F914F913F912F9150
:1010E0000F900FBE0F901F9018951F920F920FB682
:1010F0000F9211242F938F939F93EF93FF93E0917F
:10110000C302F091C4028081E091C902F091CA0249
:1011100082FD1BC090818091CC028F5F8F732091E4
:10112000CD02821741F0E091CC02F0E0ED54FD4F8A
:10113000958F8093CC02FF91EF919F918F912F918A
:101140000F900FBE0F901F9018958081F4CF1F92C3
:101150000F920FB60F9211242F933F938F939F936B
:10116000AF93BF938091210290912202A09123021C
:10117000B09124023091200223E0230F2D3758F53F
:101180000196A11DB11D209320028093210290930E
:101190002202A0932302B093240280912502909111
:1011A0002602A0912702B09128020196A11DB11D2F
:1011B0008093250290932602A0932702B0932802E1
:1011C000BF91AF919F918F913F912F910F900FBE43
:1011D0000F901F90189526E8230F0296A11DB11DB0
:1011E000D2CF1F920F920FB60F9211242F933F93DD
:1011F0004F935F936F937F938F939F93AF93BF931F
:10120000EF93FF93E0912F02F0913002309749F075
:10121000A685B7858585968D91FF14C09C918923FD
:10122000A1F4FF91EF91BF91AF919F918F917F9129
:101230006F915F914F913F912F910F900FBE0F9043
:101240001F9018959C91892361F7A389B4899C917B
:101250008589809589238C93868997890197F1F7F1
:10126000608D718DA685B785558538E020E0CB016E
:101270000197F1F7822F90E095958795282F4C9153
:10128000452309F02068315091F7868D81FD209526
:1012900080912E0290E001968F73992730912D0254
:1012A000381799F0A0912E02B0E0A052BE4F2C93B7
:1012B00080932E02828D938D0197F1F7A389B489D3
:1012C0008C919589892B8C93ACCF868D8160868F8C
:1012D000F1CF1F920F920FB60F9211242F933F93CD
:1012E0004F935F936F937F938F939F93AF93BF932E
:1012F000EF93FF938091B900887F803609F44AC04C
:10130000F0F5883209F4A7C018F5803109F49BC0C4
:10131000B8F4882309F4F9C0883009F494C0FF9127
:10132000EF91BF91AF919F918F917F916F915F915D
:101330004F913F912F910F900FBE0F901F901895D6
:10134000883109F488C0803251F78093870214C035
:10135000803409F49DC040F48033B9F38833F9F642
:101360008093870285ECB0C0803509F485C088354C
:1013700009F496C0883499F60E941708D0CF8839AE
:1013800009F48CC038F5883729F050F4883611F00C
:10139000803729F683E0809389021092DF0157C0DD
:1013A000883809F47BC0803919F0803809F0B7CF4C
:1013B0008091DF01803208F071C0E091DF0181E0AF
:1013C0008E0F8093DF018091BB00F0E0E154FE4F6F
:1013D00080833DC0803B39F0E0F4803A09F479C065
:1013E000883A09F09CCF84E0809389021092BE0174
:1013F0001092BD01E0912902F0912A020995809195
:10140000BD0181110FC081E08093BD0110929D014B
:1014100009C0803C09F4A6CF883C09F4A3CF883BDF
:1014200009F07DCFE091BE0181E08E0F8093BE0177
:10143000F0E0E356FE4F80818093BB009091BE01A7
:101440008091BD0129C0809164028093BB0085EC2E
:101450008093BC0064CF909186028091850298179A
:1014600058F5E091860281E08E0F80938602F0E0CD
:10147000EB59FD4F8081E9CFE091860281E08E0F2C
:10148000809386028091BB00F0E0EB59FD4F808392
:1014900090918602809185029817C8F285E8D8CF8E
:1014A000E091860281E08E0F809386028091BB00DE
:1014B000F0E0EB59FD4F80838091880281115CCF71
:1014C00081E08093630284EA8093BC0010928902D9
:1014D00026CF85EC8093BC00109289028091DF01B9
:1014E000803230F4E091DF01F0E0E154FE4F1082F1
:1014F0006091DF0170E0E0912B02F0912C028FEB04
:1015000091E009951092DF010ACF1092870234CF43
:10151000CF92DF92EF92FF920F931F93E82FF92F54
:1015200005C0015011092109310961F1908196230B
:101530009417B9F305C0015011092109310911F1BE
:10154000908196239413F7CFC12CD12CE12CF12C50
:101550000AC08FEFC81AD80AE80AF80A0C151D0548
:101560002E053F0579F080818623841791F36C2D39
:101570007D2D8E2D9F2D1F910F91FF90EF90DF906D
:10158000CF90089560E070E080E090E01F910F91AF
:10159000FF90EF90DF90CF9008951092B6021092D6
:1015A000B50288EE93E0A0E0B0E08093B70290939C
:1015B000B802A093B902B093BA0226E131E03093A9
:1015C000B4022093B30225EC30E03093C0022093A4
:1015D000BF0224EC30E03093C2022093C10220EC21
:1015E00030E03093C4022093C30221EC30E030930A
:1015F000C6022093C50222EC30E03093C80220934B
:10160000C70226EC30E03093CA022093C902109240
:10161000CC021092CD021092CE021092CF02109204
:101620005303109252038093540390935503A09355
:101630005603B093570328E231E0309351032093CF
:1016400050031092A5031092A4032CE431E03093D0
:10165000A3032093A20327E22093A60320E1209373
:10166000AB0322E02093AC031092AD032AE5209354
:10167000A1031092850310928403809386039093B4
:101680008703A0938803B09389038AE391E0909342
:10169000830380938203109299031092980310920F
:1016A0009B0310929A0310929D0310929C03109238
:1016B0009F0310929E036091A0036E7F6D7F6093E5
:1016C000A0036695617081E068278BE00E949C0111
:1016D00061E08BE00E94E801E9EBF0E0E491E09347
:1016E0009203E5EAF0E0E491F0E0EE0FFF1FE0572F
:1016F000FF4F85919491909394038093930360E0BE
:101700008AE00E94E8018091A00381FD04C061E0AD
:101710008AE00E949C018AE080938E03E8EBF0E06F
:10172000E491E0938F03E4EAF0E0E491F0E0EE0F5F
:10173000FF1FEA57FF4F2591349130939103209377
:10174000900344EF51E060E070E0409362035093F7
:1017500063036093640370936503E8E0F1E0A0E73E
:10176000B3E001900D928A95E1F710927A0382E03E
:1017700080937B03109280031092810308957894E4
:1017800084B5826084BD84B5816084BD85B5826086
:1017900085BD85B5816085BD80916E008160809337
:1017A0006E001092810080918100826080938100A0
:1017B00080918100816080938100809180008160B0
:1017C000809380008091B10084608093B10080910B
:1017D000B00081608093B00080917A008460809333
:1017E0007A0080917A00826080937A0080917A00FA
:1017F000816080937A0080917A00806880937A007B
:101800001092C100E091C302F091C40282E0808393
:10181000E091BF02F091C0021082E091C102F0910C
:10182000C2028FEC80831092CB02E091C702F0914C
:10183000C80286E08083E091C502F091C6028081F3
:1018400080618083E091C502F091C602808188604A
:101850008083E091C502F091C60280818068808318
:10186000E091C502F091C60280818F7D8083109245
:10187000320210923102109290021092B2020E9433
:10188000BE048DE890E090932A02809329028EE8AE
:1018900090E090932C0280932B020E94BE04109241
:1018A000A7038091AC03823018F098E09093A703CF
:1018B0008093AA0362E370E080E090E00E943E0221
:1018C0006091AD0382EA93E00E94720668EE73E0D5
:1018D00080E090E00E943E0260E382EA93E00E9492
:1018E0008906CBE4D6E4CE010197F1F760E382EA02
:1018F00093E00E9489062197F1F760E382EA93E082
:101900000E94890683E592E00197F1F760E282EA9E
:1019100093E00E9489066091A703606240E082EA3A
:1019200093E00E94A20684E08093A80340E06CE06C
:1019300082EA93E00E94A2060E94B90682E08093A8
:10194000A90340E066E082EA93E00E94A20640E03C
:1019500062E082EA93E00E94A2068BE39FE1019796
:10196000F1F788E08093AD0360E082EA93E00E94A3
:10197000720610929D0310929C0310929B0310928A
:101980009A0310929903109298038DE991E0909335
:101990009F0380939E0390918E03963108F047C079
:1019A0002DEB30E030939903209398032BE931E03D
:1019B00030939B0320939A032CE231E030939D03F4
:1019C00020939C032091680084E0983048F031E037
:1019D0009E3008F430E081E001C0880F3A95EAF7C4
:1019E000822B809368002DE630E0983050F02BE693
:1019F00030E09E3030F02CE630E0963110F030E0F0
:101A000020E03093960320939503292F30E09830FF
:101A100008F063C081E001C0880F9A95EAF78093CF
:101A2000970380919E0390919F030197F1F7809116
:101A30009C0390919D03892B49F1E0912F02F09135
:101A4000300223E0E238F20709F1309739F0A38938
:101A5000B4899C918589809589238C938091A0037A
:101A60008E7F8093A00310922E0210922D0282E8A6
:101A700093E09093300280932F02E0919503F091D0
:101A80009603808190919703892B808382E893E06D
:101A900090935D0380935C0381E08093740370E016
:101AA00060E08CE00E948E030E9471026B017C0159
:101AB0000E947D0281111EC00E9471026C197D0975
:101AC0008E099F09613D77408105910598F460E09A
:101AD00070E0CB010E943E02EBCF9E3040F42850D4
:101AE000310981E001C0880F2A95EAF798CF2E507E
:101AF0003109F7CF68EC70E080E090E00E943E0290
:101B00001092800380917C03843041F0893031F061
:101B100060E070E0CB010E943E02FACF6EE170E01F
:101B200086E00E948E0360E083E00E94E80161E0AD
:101B300082E00E94E80161E084E00E94E80160E048
:101B400085E00E94E80160E08EE00E94E80161E02B
:101B500086E00E94E80168EE73E080E090E00E9479
:101B60003E0290E4892E04E610E020E0A22E20E060
:101B7000B22ED4E60E94B407809161029091620275
:101B8000843691050CF0D1C20E94710260935D020F
:101B900070935E0280935F029093600261E070E058
:101BA00083E00E948E0364EF71E080E090E00E9489
:101BB0003E02C1E085EC982E0E947102C0905D0249
:101BC000D0905E02E0905F02F09060026C197D0997
:101BD0008E099F0968397A438105910508F0A1C2F1
:101BE0000E94B407809161029091620205970CF007
:101BF000DBC08091A103C0938F028093B102109249
:101C000090021092B20267E080E593E00E944306E2
:101C100080E00E94FD047090A1030E9419026B01F4
:101C20007C0180918902811164C0C0938902C093B4
:101C300088022FEF209387021092860282E0809321
:101C40008502C093640280916402770C782A7092B6
:101C5000640280916302813009F05BC110926302DB
:101C60000E9419026B017C01809164028093BB0089
:101C700080918B0290918C02A0918D02B0918E0286
:101C8000892B8A2B8B2BA1F00E94190240908B028A
:101C900050908C0260908D0270908E026C197D09BC
:101CA0008E099F09461657066806790608F442C051
:101CB0008091BC0083FDD8CF9092BC000E94190295
:101CC0006B017C0180918902813009F426C18091E9
:101CD0008602833008F043C180918602A5E6B2E017
:101CE000E3E3F2E090E0981751F12D9121939F5F8B
:101CF000FACF80918B0290918C02A0918D02B091CD
:101D00008E02892B8A2B8B2B09F48BCF0E94190210
:101D100020918B0230918C0240918D0250918E0265
:101D20006C197D098E099F0926173707480759073F
:101D300008F077CF80918A020E94DC0480E0109244
:101D400032028093310280E593E00E94FC057C0121
:101D500080E593E00E94FC05212CE228F82A80E52A
:101D600093E00E94FC05B70190E080E00E94AB1177
:101D70002AE037ED43EA5CE30E94621223E333E991
:101D800048E853E40E940A1120E030E040E050E4CB
:101D90000E940B11609358027093590280935A026B
:101DA00090935B02C0935C0280927C0080917A00E9
:101DB000806480937A0080917A0086FDFCCF9091B8
:101DC0007800809179008927982789279093550278
:101DD0008093540280915C02882309F442C10E94DE
:101DE000B90680E00E94C40687E591E00E94AF0733
:101DF000C0905802D0905902E0905A02F0905B02D5
:101E0000A7019601C701B6010E94CF126BE571E0F0
:101E100081111BC026013701E89477F82FEF3FEFBF
:101E20004FE75FE7C301B2010E94CF12811199C051
:101E30002FEF3FEF4FE75FE7C301B2010E94771139
:101E400018160CF08EC06FE571E082EA93E00E94F4
:101E5000210787E691E00E94AF0781E00E94C40657
:101E60008AE691E00E94AF07609156027091570296
:101E700082EA93E00E94A50786E791E00E94AF07FF
:101E800020E030E048E152E460915802709159023C
:101E900080915A0290915B020E945D121816B4F470
:101EA00070E060E086E10E948E0368EC70E080E004
:101EB00090E00E943E0263E070E083E00E948E03A7
:101EC00068E873E180E090E00E943E028091540255
:101ED00090915502843691050CF074C180915302A3
:101EE000811170C161E086E00E94E801E8E7F0E05E
:101EF0008491833009F44CC108F0D0C0813009F4DA
:101F0000E0C0823009F43FC160E086E00E949C019D
:101F1000DCC0E5EEE093BC00D1CE80918B029091C5
:101F20008C02A0918D02B0918E02892B8A2B8B2B73
:101F300009F4C8CE0E94190240908B0250908C0286
:101F400060908D0270908E026C197D098E099F0938
:101F5000461657066806790608F0B4CEEBCE83E045
:101F6000BDCE2FEF3FEF4FE75FE4C701B6010E9400
:101F70005D1218161CF463E671E067CF2FEF3FEF98
:101F80004FE75FECC701B6010E94771187FDF3CFE1
:101F900020E030E0A901C701B6010E94771187FF58
:101FA0000AC041E06DE282EA93E00E94A206F7FADD
:101FB000F094F7F8F0942AE037ED43EA5BE3C701C9
:101FC000B6010E940B112B013C010E947C116B0198
:101FD0007C010E94AB119B01AC01C301B2010E94C4
:101FE0000A112B013C012AE0B701A60182EA93E025
:101FF0000E94300741E06EE282EA93E00E94A2066E
:1020000020E030E040E251E4C301B2010E946212DC
:102010002B013C010E947C116B01F12CE12C2AE088
:10202000B701A60182EA93E00E943007C701B6011A
:102030000E94AB119B01AC01C301B2010E940A11C5
:1020400020E030E040E251E40E9462120E947C11E4
:10205000AB0170E060E02AE082EA93E00E94300782
:10206000F8CE0E94B90680E00E94C40688E791E09D
:102070000E94AF0781E00E94C4068AE691E00E94B8
:10208000AF07609156027091570282EA93E00E9476
:10209000A50786E791E00E94AF0718CF873009F4C3
:1020A00081C0883009F486C0843009F02DCF80913A
:1020B000800080628093800010938B0000938A00E0
:1020C00004C084B5806884BDD7BD60ED77E080E052
:1020D00090E00E943E0260E086E00E949C01C09376
:1020E000530280915C02882309F471C080915302ED
:1020F000882309F46CC070E060E086E10E948E03E2
:1021000068EC70E080E090E00E943E0262E070E0E7
:1021100083E00E948E0368EE73E080E090E00E940E
:102120003E021092530210925C020E94B90680E0B7
:102130000E94C40687E891E00E94AF0781E00E94F8
:10214000C40683E991E00E94AF0760915602709146
:10215000570282EA93E00E94A50786E791E00E9479
:10216000AF0768EE73E080E090E00E943E02A114A9
:10217000B10409F4FFCC0E94F900882309F4FACCD9
:102180000E940000F6CC84B5806284BDD8BD9DCF8E
:102190008091800080688093800010938900009374
:1021A000880093CF8091B00080688093B000D09376
:1021B000B3008BCF8091B00080628093B000D09349
:1021C000B40083CF60E086E00E949C018ACF64EF78
:1021D00071E080E090E00E943E02EECC8AE391E064
:1021E000909383038093820380912F029091300219
:1021F0008258934071F4E0919503F0919603908199
:1022000080919703809589238083109230021092E9
:102210002F0208955058BB27AA270E9422110C9420
:1022200023120E94151238F00E941C1220F039F47B
:102230009F3F19F426F40C9412120EF4E095E7FB7C
:102240000C940C12E92F0E94341258F3BA1762074B
:1022500073078407950720F079F4A6F50C945612BD
:102260000EF4E0950B2EBA2FA02D0B01B9019001B1
:102270000C01CA01A0011124FF27591B99F0593FF5
:1022800050F4503E68F11A16F040A22F232F342F3D
:102290004427585FF3CF469537952795A795F0408B
:1022A0005395C9F77EF41F16BA0B620B730B840BA0
:1022B000BAF09150A1F0FF0FBB1F661F771F881F58
:1022C000C2F70EC0BA0F621F731F841F48F48795B0
:1022D00077956795B795F7959E3F08F0B0CF9395A2
:1022E000880F08F09927EE0F9795879508950E941B
:1022F000E81108F481E008950E943C1288F09F578D
:1023000098F0B92F9927B751B0F0E1F0660F771F19
:10231000881F991F1AF0BA95C9F714C0B13091F00F
:102320000E945612B1E008950C945612672F782F30
:102330008827B85F39F0B93FCCF3869577956795D4
:10234000B395D9F73EF490958095709561957F4F40
:102350008F4F9F4F0895E89409C097FB3EF49095E6
:102360008095709561957F4F8F4F9F4F9923A9F06E
:10237000F92F96E9BB279395F695879577956795FD
:10238000B795F111F8CFFAF4BB0F11F460FF1BC041
:102390006F5F7F4F8F4F9F4F16C0882311F096E9D4
:1023A00011C0772321F09EE8872F762F05C0662382
:1023B00071F096E8862F70E060E02AF09A95660F3B
:1023C000771F881FDAF7880F9695879597F90895F4
:1023D000990F0008550FAA0BE0E8FEEF1616170636
:1023E000E807F907C0F012161306E407F50798F09E
:1023F000621B730B840B950B39F40A2661F0232BB7
:10240000242B252B21F408950A2609F4A140A69532
:102410008FEF811D811D089597F99F6780E870E017
:1024200060E008959FEF80EC089500240A9416164A
:10243000170618060906089500240A9412161306B2
:10244000140605060895092E0394000C11F4882340
:1024500052F0BB0F40F4BF2B11F460FF04C06F5F5C
:102460007F4F8F4F9F4F089557FD9058440F551F32
:1024700059F05F3F71F04795880F97FB991F61F006
:102480009F3F79F087950895121613061406551F7D
:10249000F2CF4695F1DF08C0161617061806991FE9
:1024A000F1CF86957105610508940895E894BB27DE
:1024B00066277727CB0197F908950E94E81108F461
:1024C0008FEF08950E9475120C9423120E9415122A
:1024D00038F00E941C1220F0952311F00C940C127D
:1024E0000C94121211240C9457120E94341270F39F
:1024F000959FC1F3950F50E0551F629FF001729FA9
:10250000BB27F00DB11D639FAA27F00DB11DAA1FB7
:10251000649F6627B00DA11D661F829F2227B00D04
:10252000A11D621F739FB00DA11D621F839FA00D8F
:10253000611D221F749F3327A00D611D231F849FDF
:10254000600D211D822F762F6A2F11249F57504036
:102550009AF0F1F088234AF0EE0FFF1FBB1F661FB1
:10256000771F881F91505040A9F79E3F510580F07A
:102570000C940C120C9457125F3FE4F3983ED4F382
:10258000869577956795B795F795E7959F5FC1F71E
:10259000FE2B880F911D9695879597F908950E94B7
:1025A000E811880B990B089597FB072E16F40094F9
:1025B00007D077FD09D00E94101307FC05D03EF428
:1025C000909581959F4F0895709561957F4F0895DF
:1025D000A1E21A2EAA1BBB1BFD010DC0AA1FBB1F27
:1025E000EE1FFF1FA217B307E407F50720F0A21B99
:1025F000B30BE40BF50B661F771F881F991F1A9406
:1026000069F760957095809590959B01AC01BD012F
:10261000CF010895EE0FFF1F0590F491E02D09946E
:10262000AA1BBB1B51E107C0AA1FBB1FA617B707F8
:1026300010F0A61BB70B881F991F5A95A9F7809514
:102640009095BC01CD01089510E0C2E6D0E004C031
:10265000FE010E940A132196C336D107C9F7F894E8
:10266000FFCF00004000140054007EFF0600010070
:10267000000000EF000000002F018F00BC007C0173
:10268000ED00CB00DF0000000000430616068606C2
:1026900000040F06FC05ED050000000001048F009A
:1026A000860600045D047504E80300000000F506DA
:1026B0008F00860696040D0A00543A20006E616E63
:1026C00000696E66006F7666002A430044756E6787
:1026D00020646963683A20002500543A2053616EF3
:1026E0002073616E6720646F00543A2053616E203E
:0E26F00073616E67004C69717569643A200071
:107E0000112484B714BE81FFF0D085E080938100F7
:107E100082E08093C00088E18093C10086E0809377
:107E2000C20080E18093C4008EE0C9D0259A86E02C
:107E300020E33CEF91E0309385002093840096BBD3
:107E4000B09BFECF1D9AA8958150A9F7CC24DD24C4
:107E500088248394B5E0AB2EA1E19A2EF3E0BF2EE7
:107E6000A2D0813461F49FD0082FAFD0023811F036
:107E7000013811F484E001C083E08DD089C08234E0
:107E800011F484E103C0853419F485E0A6D080C0E4
:107E9000853579F488D0E82EFF2485D0082F10E0AE
:107EA000102F00270E291F29000F111F8ED06801E7
:107EB0006FC0863521F484E090D080E0DECF843638
:107EC00009F040C070D06FD0082F6DD080E0C81688
:107ED00080E7D80618F4F601B7BEE895C0E0D1E017
:107EE00062D089930C17E1F7F0E0CF16F0E7DF06D8
:107EF00018F0F601B7BEE89568D007B600FCFDCFD4
:107F0000A601A0E0B1E02C9130E011968C91119780
:107F100090E0982F8827822B932B1296FA010C0160
:107F200087BEE89511244E5F5F4FF1E0A038BF0790
:107F300051F7F601A7BEE89507B600FCFDCF97BE46
:107F4000E89526C08437B1F42ED02DD0F82E2BD052
:107F50003CD0F601EF2C8F010F5F1F4F84911BD097
:107F6000EA94F801C1F70894C11CD11CFA94CF0C13
:107F7000D11C0EC0853739F428D08EE10CD085E9AC
:107F80000AD08FE07ACF813511F488E018D01DD067
:107F900080E101D065CF982F8091C00085FFFCCF94
:107FA0009093C60008958091C00087FFFCCF809118
:107FB000C00084FD01C0A8958091C6000895E0E648
:107FC000F0E098E1908380830895EDDF803219F02E
:107FD00088E0F5DFFFCF84E1DECF1F93182FE3DFCA
:107FE0001150E9F7F2DF1F91089580E0E8DFEE27F6
:047FF000FF270994CA
:027FFE00040479
:00000001FF
