:03000000020E9855
:0C0E9800787FE4F6D8FD758170020AEF47
:100D7000252E3266004E6869657420646F20004D30
:100D800061737465723A2000536C61766520303A65
:0C0D90002000536C61766520313A200091
:100CCA007F01FE120CF17FAA1200037F647E0012DC
:100CDA000CF1120E348F087F017E00120CF1120EF5
:070CEA00348F097F017E0039
:100CF100E4FDFCC3ED9FEC9E5015E4FBFA0BBB0039
:0F0D0100010AEB647B4A70F50DBD00010C80E424
:010D100022C0
:0B0EA400EF1FAC0670011E4C70F62220
:100E5000D2A57F087E00120EA4C2A57F507E00128C
:0B0E60000EA4D2A57F227E00020EA48B
:100E1600E4FD7B08C2A5EDC313FDD2A530A50343AF
:0D0E260005807F047E00120EA4DBE9AF05FD
:010E3300229C
:020DC600AD0777
:100DC8007B087A00C2A5ED1392A57F057E00120E5E
:100DD800A4D2A5EDC313FDEB1B70011AEB4A70E416
:070DE8007F047E00020EA44F
:100D4400120E507FCC120DC67F44120DC67F0A7E50
:100D540000120EA4120E507FCC120DC67FBE120DCF
:0C0D6400C6120E168F08120E168F092200
:100E8400759850758920758DF3D28ED299D29CD2E3
:040E9400ACD2AF220B
:070EB8003098FDAF99C298CC
:010EBF002210
:080EC0008F993099FDC29922BF
:060D9C007B007A007922C1
:060DA2008B558A568957AB
:100DA800E4FEAB55AA56A957EEFD3395E08D82F5C2
:0D0DB800831205FDFF6006120EC00E80E5DF
:010DC500220B
:060D11007B007A00794925
:060D17008B558A56895736
:100D1D00E4FEAB55AA56A957EEFD3395E08D82F54D
:100D2D00831205FDFF6006120EC00E80E57F0A12CC
:070D3D000EC07F0D020EC085
:090EAF00D2A3D2A4C2A0D2A22257
:10000300E4FEEF30E704D2A18002C2A1000000D2D7
:0E001300A0000000C2A0EF25E0FF0EBE08E432
:0100210022BC
:100E3400E4FFFEEF25E0FFD2A000000030A2034350
:0B0E44000701C2A00000000EBE08E87D
:010E4F002280
:03002300020C5D6F
:100C5D00C0E0C0D075D000C002C003C004C005C044
:030C6D0006C007B7
:100C7000C2AC309904C299803E120EB8EF24CE6007
:100C80001114601E1460222403702CC2A3120CEDF8
:100C90008006C2A3120CED0F120003120CEDD2A3BA
:100CA0008015C2A4120CED8006C2A4120CED0F1226
:090CB0000003120CEDD2A4D2AC39
:100CB900D007D006D005D004D003D002D0D0D0E0E0
:010CC90032F8
:100E6B00A907E97007C2A3120CCAD2A3E9640170E7
:090E7B0007C2A4120CCAD2A42281
:100AEF0078227C007D007BFF7A0D79757E007F0A6E
:100AFF001205BE782C7C007D007BFF7A0D797F7EFE
:100B0F00007F091205BE78357C007D007BFF7A0DD2
:100B1F0079887E007F0A1205BE783F7C007D007BBE
:100B2F00FF7A0D79927E007F0A1205BE120E84E4C1
:100B3F00FF120EC0120EAF1200037FF47E01120CD3
:100B4F00F1120D44754F00850850754F00E509FEF1
:100B5F00EE424FAC4FAD50EC120131E4FBFA79800D
:100B6F00783D1200268F548E538D528C517558FF3D
:100B7F0075590D755A708F5E8E5D8D5C8C5B7B0029
:100B8F007A0079491206DC120D9C7B007A00792CD1
:100B9F00120DA2120D11E4FF120E6B754F00850896
:100BAF0050754F00E509FEEE424FAC4FAD50EC12C1
:100BBF000131E4FBFA7980783D1200268F548E5371
:100BCF008D528C517558FF75590D755A708F5E8EF9
:100BDF005D8D5C8C5B7B007A0079491206DC120D0F
:100BEF009C7B007A007935120DA2120D117F011234
:100BFF000E6B754F00850850754F00E509FEEE42EC
:100C0F004FAC4FAD50EC120131E4FBFA7980783DD7
:100C1F001200268F548E538D528C517558FF755973
:100C2F000D755A708F5E8E5D8D5C8C5B7B007A00CC
:100C3F0079491206DC120D9C7B007A00793F120D68
:0E0C4F00A2120D117FF47E01120CF1020B5067
:10002600EC4D6011E8497017ED33EC3304600DE4D4
:10003600FCFFFEFD22E933E8330470F802019F124B
:10004600016A58046009E4CC24815006285009024C
:1000560001A92840030201A6C0E0EB4A7044B9801A
:1000660006D0E0FB020195EF4E701CBD8008EBFF49
:10007600EAFEE9FD80EBE98DF0A4FEE5F002010F52
:10008600E9CDF9EAFEEBFFEF89F0A4FCE5F0CE89B5
:10009600F0A42EFFE435F0CD89F0A42DFEE435F072
:1000A6008067EF4E7005BD80D780C3EF8BF0A4ACA0
:1000B600F0EE8BF0A42CFCE435F0F8EF8AF0A42CDB
:1000C600E5F038FCE433CB8DF0A42CFCE5F03BF8EE
:1000D600EE8AF0A42CFCE5F038F8E433CF89F0A4DE
:1000E6002CFCE5F038CF3400CE89F0A42FFFE5F0E4
:1000F6003EFEE433C98DF0A42EFEE5F039CD8AF03C
:10010600A42FFFE5F03EFEE43DFD33D0E0FB5007B3
:100116000BBB000F0201A9EC2CFCEF33FFEE33FE04
:06012600ED33FD02018132
:10012C0075F020800E75F010800575F0087D007E4E
:10013C00007F003392D530D50312063CEC334010CF
:10014C00EF33FFEE33FEED33FDEC33FCD5F0ED2257
:0E015C00E5F0247EA2D513CC92E7CDCEFF2293
:10068000E56C2458F8E6056C227855300702785856
:10069000E475F00112064A0205E42000EB7F2ED239
:1006A000008018EF540F2490D43440D4FF30040B52
:1006B000EF24BFB41A0050032461FFE56D600215FA
:1006C0006D0570E5707002056F30070D7855E475A3
:1006D000F00112064AEF02062A020DEF7403D20758
:1006E0008003E4C207F56C8B558A568957E4F56D93
:1006F000F56FF570E56D60077F201206BB80F5751C
:100700006EFFC201C200C202C203C205C206C20815
:10071000120689FF700D3007057F001206CCAF70FE
:10072000AE6F22B4255FC2D5C204120689FF24D061
:10073000B40A00501A75F00A786D30D50508B6FF76
:100740000106C6A426F620D5047002D20380D9245F
:10075000CFB41A00EF5004C2E5D2040209B9D201A5
:1007600080C6D20080C0D20280BCD2D580BAD20569
:1007700080B47F201206BB2002077401B56D0040D3
:10078000F1120680FF1206BB0206F4D208D20680E0
:1007900095120680FB120680FA120680F94A4B7009
:1007A0000679B07A0A7BFF20022EE56D602A7E0072
:1007B0008E827583001205FD60060EEE656E70F088
:1007C000C2D5EBC0E0EAC0E0E9C0E0EE120A19D001
:1007D000E0F9D0E0FAD0E0FB1205E4FF60AAEBC03C
:1007E000E0EAC0E0E9C0E01206BBD0E02401F9D0A5
:1007F000E03400FAD0E0FBE56E0460DCD56ED98011
:1008000087D20280A21209FC60F7E56E7001041223
:1008100001B4A96E600DE56E600914F56E120AA3AD
:10082000EF60F3EA30E702F404C3995077EAF42565
:100830006E0430E701E404F56E800D1209FC60C11E
:10084000EA056E256E1201B4EA786BF630E701E432
:10085000256E04D56E0420050114120A19E4C0E0C7
:10086000120AA3786BE6601320E70714F61206A3BA
:10087000802204F6D0E014C0E07F001206A3E56EEB
:10088000600712069A156E800B30050312069AD087
:10089000E00206F4D0E00480C51209FC60A0E56E19
:1008A000041201B4786BEAF6E56E200502600104DB
:0508B0002404120A19E6
:1008B50074FF04C0E0120AA31206A3E56E20050228
:1008C500600312069AD0E0B56EE87F451206AD7852
:1008D5006BE67F2B30E7047F2DF404C0E01206BBE6
:1008E500D0E075F00A84C0F01206A4D0E01206A488
:1008F5000206F4791080027908C206C2088008D27F
:10090500D5790A8004790AC2D5E56E047002F56EC0
:10091500E4FAFDFEFF120680FC7B08200113120697
:1009250080FD7B1030000A120680FE120680FF7BD8
:1009350020EC3382D592D55013C3E43000069FFFD7
:10094500E49EFEE42001039DFDE49CFCE4CBF8C29B
:1009550001EC700CCFCECDCCE824F8F870F38017FD
:10096500C3EF33FFEE33FEED33FDEC33FCEB33FB2E
:10097500994002FB0FD8E9EB300105F8D0E0C448F7
:10098500B201C0E00AEC4D4E4F78207B0070C2EA00
:10099500B56E0040BCC0E0120A1BD0F0D0E02001CB
:1009A50004C4C0E0C4B201C0F01206A4D0F0D5F072
:1009B500EB0206F412065A07915308F85807624CE1
:1009C500075E4208FC4F09044409044907774309B7
:1009D5000A55083B460899450805470AD050076659
:1009E5002D076A2E078D2B076E23078B200AB92A40
:1009F50007264800000785E56EB4FF03756E0612ED
:100A05000680FC120680FD120680FE120680FF7825
:100A1500640201E3790AA2D5200314300509B9104F
:100A2500020404B9080104A2D520060250010420DD
:100A350002689202B56D005034C0E07F2030031982
:100A45007F30A20272067205500F120A72C202C2EC
:100A550006C205C2087F30800F300503E9C0E012E9
:100A650006BB300503D0E0F9D0E0B56DCC300517F5
:100A75007F30B9100C1206BB7F583004077F788091
:100A850003B908031206BB3002057F2D0206BB7FA2
:100A9500202008F87F2B2006F322920280CF7F00CA
:100AA500B4070050052464F8E6FF22286E756C6CC7
:100AB5002900D2011206803001F8C201786D30D5C7
:100AC5000108F60207262D504349581206802403D3
:100AD500B405004001E4900ACB931206AC743A12B7
:0A0AE50006ACD203756D040208F898
:10016A00E9D2E7C933E833F892D5EDD2E7CD33ECDB
:07017A0033FC5002B2D52254
:10018100EC30E7100FBF000C0EBE00080DBD0004DF
:100191000BEB6014A2D5EB13FCED92E7FD2274FF8B
:1001A100FCFDFEFF22E480F8A2D574FF13FC7D80E4
:0301B100E480EFF8
:1001B400F920E72824F950037907E4F42402FB1812
:1001C400DBFDE624FB5014E9600DE4F618E604F6C2
:0F01D400B40A08E4F6D9F57401F60A22C2D5225E
:1001E300ED33EC3392D5FA602AB4FF33EDC2E77BEB
:1001F300FF60067A027908E4227A02791120D50495
:100203007A02790C224E614E002B494E46002D494D
:100213004E4600E47A08F608DAFC7B00740722E80D
:10022300C0E0ECC0E0EDC0E0EEC0E0EFC0E0EA7596
:10023300F010A4CAABF075F04DA42BFBE435F0FC31
:10024300EA2410FAEB34C5FBEC34D9FCEDC2E7FF2A
:1002530075F056A4F42411C5F0F434C58FF0A42A24
:10026300E5F03BE43CF620E7141204AED0E0FFD007
:10027300E0FED0E0FDD0E0FC1203E18014F40412B0
:1002830004AED0E0FFD0E0FED0E0FDD0E0FC1200F1
:1002930026D0E0F8E6FAEDD2E7CD33EC332482FB47
:1002A300E4C3CF33CFCE33CECD33CD33DBF37B07B4
:1002B30075F00A846004F6081B0AE5F0F6088FF06F
:1002C300740AA4FFACF08EF0740AA42CFEACF050B8
:1002D300010C8DF0740AA42CFDE435F0F608DBDE86
:0302E3007407227B
:1002E60002019FE86480F8E933E83360110460F0A6
:1002F600ED33EC337009E8FCE9FDEAFEEBFF22047E
:1003060060DED3EB9FEA9EE99DE8C2E78CF0C2F778
:1003160095F0400CE8CCF8E9CDF9EACEFAEBCFFB44
:1003260012016A85D0F05804700320D5B3E8047032
:10033600075002B2D50201A992D5EC0460F7E4CCCD
:10034600C0E0C398F8603B94186008400DD0E0FB0D
:10035600020181E4FBFAC9FC8028E830E406E4C91E
:10036600FBE4CAFCE830E305E4C9CACBFCE8540761
:100376006010F8C3E913F9EA13FAEB13FBEC13FC6C
:10038600D8F130F52FC3E49CFCEF9BFFEE9AFEED0F
:1003960099FDD0E0FBEF4E4D4C701222DB030201BB
:1003A600A6EC2CFCEF33FFEE33FEED33FDED30E72C
:1003B600EB020181EF2BFFEE3AFEED39FDD0E0FBBB
:1003C60050130BBB00030201A9ED13FDEE13FEEF64
:0803D60013FFEC13FC0201818E
:1003DE000201A9EC5D046005E85904700302019F57
:1003EE0012016A580460F6EC4860F2EC7004FDFEEF
:1003FE00FF22C860DB2481C85009C39860025006F2
:10040E000201A69850CAF582E9294B4A7005AB82C3
:10041E0002019575F0007C1A7880C3EF9BEE9AED81
:10042E0099400DC3EF9BFFEE9AFEED99FDE842F069
:10043E00DC23ACF0D0E0FFD0E0FED0E0FDAB8220BC
:10044E00E7101BEB60BAEC2CFCEF33FFEE33FEED46
:10045E0033FD020181E803F830E705C0F075F000C6
:10046E00EF2FFFEE33FEED33FD40B830E7C280AA2A
:10047E003F8000004120000042C80000447A000086
:10048E00461C400047C35000497424004B18968008
:10049E004CBEBC205A0E1BCA6753C21C749DC5AEFF
:1004AE00FB60065407601C23231204DCEB543860F7
:1004BE00091204C81204D7120026ECF8EDF9EEFA70
:1004CE00EFCB22EB1204D780F1543803241C900496
:1004DE007EFE93FC0EEE93FD0EEE930ECE93FF2258
:1004EE00E709F608DFFA8046E709F208DFFA803EF0
:1004FE0088828C83E709F0A3DFFA8032E309F608DD
:10050E00DFFA8078E309F208DFFA807088828C8344
:10051E00E309F0A3DFFA806489828A83E0A3F608F8
:10052E00DFFA805889828A83E0A3F208DFFA804CD2
:10053E0080D280FA80C680D4806980F280338010A9
:10054E0080A680EA809A80A880DA80E280CA803312
:10055E0089828A83ECFAE493A3C8C582C8CCC5838A
:10056E00CCF0A3C8C582C8CCC583CCDFE9DEE7805A
:10057E000D89828A83E493A3F608DFF9ECFAA9F0D9
:10058E00EDFB2289828A83ECFAE0A3C8C582C8CC2F
:10059E00C583CCF0A3C8C582C8CCC583CCDFEADE48
:1005AE00E880DB89828A83E493A3F208DFF980CCAA
:1005BE0088F0EF60010E4E60C388F0ED2402B404A3
:1005CE000050B9F582EB2402B4040050AF2323454A
:0605DE00822390053E732C
:1005E400BB010689828A83E0225002E722BBFE0215
:0905F400E32289828A83E4932248
:1005FD00BB010CE58229F582E5833AF583E02250B3
:10060D0006E92582F8E622BBFE06E92582F8E222FC
:0D061D00E58229F582E5833AF583E4932216
:10062A00BB010689828A83F0225002F722BBFE01AF
:02063A00F322A9
:0E063C00C3E49FFFE49EFEE49DFDE49CFC22CF
:10064A00FAE6FB0808E6F925F0F618E6CA3AF622B1
:10065A00D083D082F8E4937012740193700DA3A32F
:10066A0093F8740193F5828883E473740293686043
:06067A00EFA3A3A380DF43
:100DEF00EFB40A07740D120DFA740A309811A8990E
:100DFF00B8130CC2983098FDA899C298B811F63064
:070E0F0099FDC299F599223B
:00000001FF
