:080000000C9453000C94000065
:100008000C9400000C9400000C9400000C94000068
:100018000C9400000C9400000C9400000C94000058
:100028000C9439010C94DF000C9400000C9400002F
:100038000C9400000C9400000C9400000C94000038
:100048000C9400000C9400000C9400001027E803A6
:1000580064000A0001000010000110000100000007
:100068000000000000004E6869657420646F20730A
:100078006C61766520313A20004E686965742064A9
:100088006F20736C61766520303A2000256400008B
:100098000100020066000600040068000000F894F1
:1000A800EE27ECBBF1E0FBBFEBBFE5BF8DE0A2E0C4
:1000B800BB27ED938A95E9F780E094E0A0E6ED93FD
:1000C8000197E9F7E8E9F0E085919591009761F0EB
:1000D800A591B59105901590BF01F00105900D927D
:1000E8000197E1F7FB01F0CFEFE5EDBFE4E0EEBFEC
:1000F800C0E6D1E00C943D01AA93E981F0E0309785
:1001080039F4C3980E946303C39AE1E0F0E00AC09F
:10011800E130A0E0FA0731F4C4980E946303C49A5E
:10012800E1E0F0E022960895AA93E881F0E03097A4
:1001380041F4C3980E9469035FB0C39AE1E0F0E01C
:1001480012C0E130A0E0FA0741F4C4980E946903A4
:100158004FB0C49AE1E0F0E006C005C0AA935D9BE9
:10016800FECFE881ECB921960895BA93AA931A9321
:1001780010E00E947503EC91E03031F00E947503A5
:10018800AC91ECDF1F5FF5CFAAE0E8DFADE0E6DF7A
:100198000FC0BA93AA931A9310E00E947503EC91CA
:1001A800E03031F00E947503AC91D8DF1F5FF5CFC6
:1001B8001881239608950A921A92FA926A937A936A
:1001C8008A939A93AA93BA93EA93FA93EFB7EA9326
:1001D8001A930A931BB10CB1E12FEC7189F4E72D46
:1001E8007394F0E0E05AFE4F0083E8E0E71509F465
:1001F80077249394E8E0E91519F49924689420F891
:10020800E02FF0E0E133A0E0FA0729F4E0E0EA9318
:10021800A1E072DF1AC0E233A0E0FA0729F4E0E0B7
:10022800EA93A2E069DF11C0E333A0E0FA0729F4FA
:10023800E1E0EA93A1E060DF08C0E433A0E0FA0758
:1002480021F4E1E0EA93A2E057DF09911991E991DD
:10025800EFBFF991E991B991A99199918991799112
:100268006991F9901990099018951A931FB11991ED
:100278001895E0E0EABBEBBBE8EBE7BBE0E0E8BBE6
:10028800E4BBE5BBE1BBE2BBE3BFE2BFECBFEFBD54
:10029800EEBDEDBDECBDE7BDE6BDEBBDEABDE9BD1C
:1002A800E8BDE2BDE5BDE4BDE3BDE9BFE5BFE4BF30
:1002B800EBB9E8E9EAB9E6E8E0BDE0E0E0BDE3E390
:1002C800E9B9E0E8E8B9E0E0E0BFE6B9E1EDEDB9A9
:1002D800E0E0EEB9EEB1EFB1E0E0E6BF7894E0E03F
:1002E800EA93A0E009DFE1E0EA93A0E005DFA8EEE9
:1002F800B3E00E94C003AB9786E2A5E0B0E0EEE66B
:10030800F0E00E94ED03A0E00E947B03E52D0E942F
:100318008503DE0158960E948F03A1E00E947B03AB
:10032800E42D0E948503DE0115960E948F03A4EF39
:10033800B1E00E94C003AB96DECFFFCFBA93AA9379
:100348001A930A93AA81BB8112960E94D20330970E
:1003580059F1AA81BB8114960E94D2038F0130976C
:1003680061F00230E0E01E0798F0F80131978F0144
:10037800AA81BB811496ED93FC93AA81BB81129646
:10038800ED91FD913196FE93EE933197AC81A08368
:10039800AA81BB810E94D203FF232AF0ED91FD912F
:1003A8003196FE93EE9306C0AA81BB81EFEFFFEF73
:1003B800ED93FC931981088125960895BA93AA9321
:1003C80026970E94DF0310E0AC85BD85E0E0F0E0F1
:1003D800ED93FC93EA89FB893196EA8BFB8B319785
:1003E800E4912E2FE03009F415C1E12FE03039F403
:1003F800253211F411E002C00E9494030AC1E130D1
:10040800A9F4253219F40E94940302C112E040E0D5
:1004180000E02D3211F401E0FCC02B3211F44BE264
:10042800F8C0203211F440E2F4C002C0E23039F4DE
:1004380050E013E0203311F40068EBC003C0E33050
:1004480009F0E7C0203310F02A3308F007C0AAE00B
:100458005A9F502DE22FE0535E0FDBC0E22FE336A8
:1004680049F40E949B03E889F989A481AA930E9410
:10047800A103CEC0E33741F40E949B030E94A70367
:100488000E944A031E2F0AC0E03761F40E949B03B2
:100498000E94A7030E9456031E2F086002600F7770
:1004A80030E034C0E43611F0E93611F4046002C0DB
:1004B800E53731F4E4E5F0E0EE83FF8315E00CC0A6
:1004C800E83511F4086003C0E83709F0A1C0EEE58B
:1004D800F0E0EE83FF8314E002FF14C00E949B0348
:1004E8000E94B103AB85AA233AF4EA85FB850E94F2
:1004F800CE03EA87FB874DE2403011F01F5F01C051
:100508000B7F04C00E949B030E94B10300FD11C031
:10051800151778F407FF08C002FF04C00B7F242FCB
:10052800115001C020E301C020E20E949403515001
:10053800EFCF312F01FF17C03030A1F003FF06C005
:10054800EE81FF812591EE83FF8305C0AE81BF81D7
:100558002D91AE83BF830E949403503009F051500F
:100568003150EACF4BC020E3EE81FF810E94D603D1
:10057800E887F987EE81FF813296EE83FF83E8856D
:10058800F985AA85BB85AE17BF0750F02F5FA885F0
:10059800B985EA85FB85EA1BFB0BEA87FB87EFCF6A
:1005A8002A3328F003FF02C0295F01C0295D04FD3A
:1005B8001AC0213320F4A885B985119709F409C018
:1005C800531710F000FF01C013C020E207FF0BC053
:1005D80020E3006102FF07C00B7F4A930E94A1033A
:1005E800503009F051500E949403503009F0515096
:1005F8003150A885B985129708F0B5CF00FF08C01B
:10060800503031F05150E0E2EA930E94A103F8CF54
:1006180010E0E0CEAC85BD850E94D2030E94E603BF
:1006280064960895FF92F82E26970E94E1030E948F
:10063800B903309719F4EFEFFFEF23C0DE011696E8
:100648000E94CA038D010E94B903EE83FF83E0E094
:10065800E887E987DE011A960E94CA030E94D2033E
:10066800FA93EA931A930A93E2EAF1E0FA93EA9387
:10067800DE011A96A3DE9F01AE81BF81E0E0EC9314
:10068800F9010E94E8032A96FF900895BA93AA9365
:10069800A991B991EE27FF276D91662311F0319644
:1006A800FBCF0895BA93AA93AA27BB27E991F9919A
:1006B8000590002011F01196FBCFFD010895E88107
:1006C800EFB9A4E1B0E00C94C003E0E0EFB9A2E018
:1006D800B0E00E94C003EFEFEFB9A2E0B0E00C94E5
:1006E800C003A981BA81EE27A10FBE1F08950E94F9
:1006F8009800FE01FA93EA93E4E9F0E0FA93EA93AA
:100708000895FF27662777270E94DA0384E00E946E
:100718001603289608950E94CD00DE010C94B900B6
:100728002A93AD85BE85EF85F88909950895E889EE
:10073800F9893497E88BF98B0895AD85BE85EF85E7
:10074800F88909950895A889B98914960E94D20351
:10075800EE83FF83AE81BF810895A889B989149675
:100768000E94D203EA87FB870895DE011C960E9447
:10077800CA030E94D2030895109639F080ED97E0DD
:100788000197F1F7A8951197C9F708950024AF0DBF
:10079800B01D0895F195E195F0400895ED91FC9113
:1007A800119708950590F491E02D08957A936A932E
:1007B800FA93EA9308955A934A933A932A931A9389
:1007C8000A9308955D814C813B812A8119810881B2
:1007D8000895AC0FBD1F05900D928A95E1F7089515
:00000001FF
