:020000040000FA
:100000000C94A3000C94CB000C94CB000C94CB006C
:100010000C94CB000C94CB000C94CB000C94CB0034
:100020000C94CB000C94CB000C94CB000C94CB0024
:100030000C94CB000C94CB000C94CB000C94CB0014
:100040000C9482050C94CB000C9450050C942A055A
:100050000C94CB000C94CB000C94CB000C94CB00F4
:100060000C94CB000C94CB0007634236B79BD8A707
:100070001A39685618AEBAAB558C1D3CB7CC5763CD
:10008000BD6DEDFD753EF6177231BF000000803F7B
:1000900008000000BE922449123EABAAAA2ABECD97
:1000A000CCCC4C3E00000080BEABAAAAAA3E000009
:1000B0000000BF000000803F000000000008417801
:1000C000D3BB4387D1133D190E3CC3BD4282AD2B38
:1000D0003E68EC8276BED98FE1A93E4C80EFFFBE30
:1000E00001C4FF7F3F00000000000000000024006A
:1000F00027002A0000000000250028002B00000037
:10010000000023002600290004040404040404045D
:1001100002020202020203030303030301020408B2
:100120001020408001020408102001020408102061
:1001300000000008000201000003040700000000A6
:1001400000000000CC0511241FBECFEFD8E0DEBFB9
:10015000CDBF11E0A0E0B1E0ECE2F9E102C0059012
:100160000D92A235B107D9F722E0A2E5B1E001C0B6
:100170001D92A432B207E1F710E0C3EAD0E004C058
:100180002197FE010E948E0CC23AD107C9F70E9446
:1001900016060C94940C0C940000AF92BF92CF9270
:1001A000DF92EF92FF920F931F93CF93DF936C0137
:1001B0007B018B01040F151FEB015E01AE18BF0818
:1001C000C017D10759F06991D601ED91FC910190CA
:1001D000F081E02DC6010995892B79F7C501DF91E2
:1001E000CF911F910F91FF90EF90DF90CF90BF9034
:1001F000AF900895FC01538D448D252F30E0842F5E
:1002000090E0821B930B541710F0CF96089501973E
:100210000895FC01918D828D981761F0A28DAE0F2B
:10022000BF2FB11D5D968C91928D9F5F9F73928FB2
:1002300090E008958FEF9FEF0895FC01918D828DDE
:10024000981731F0828DE80FF11D858D90E00895AB
:100250008FEF9FEF0895FC01918D228D892F90E003
:10026000805C9F4F821B91098F73992708958FE6B9
:1002700091E00E942B0121E0892B09F420E0822FDC
:10028000089580E090E0892B29F00E9437018111C8
:100290000C9400000895FC01A48DA80FB92FB11D86
:1002A000A35ABF4F2C91848D90E001968F739927AC
:1002B000848FA689B7892C93A089B1898C9183708A
:1002C00080648C93938D848D981306C00288F38983
:1002D000E02D80818F7D80830895EF92FF920F93B0
:1002E0001F93CF93DF93EC0181E0888F9B8D8C8DE2
:1002F00098131AC0E889F989808185FF15C09FB7D6
:10030000F894EE89FF896083E889F9898081837098
:10031000806480839FBF81E090E0DF91CF911F9147
:100320000F91FF90EF900895F62E0B8D10E00F5F68
:100330001F4F0F731127E02E8C8D8E110CC00FB63E
:1003400007FCFACFE889F989808185FFF5CFCE01D6
:100350000E944B01F1CFEB8DEC0FFD2FF11DE35A05
:10036000FF4FF0829FB7F8940B8FEA89FB89808159
:100370008062CFCFCF93DF93EC01888D8823B9F0D3
:10038000AA89BB89E889F9898C9185FD03C08081A0
:1003900086FD0DC00FB607FCF7CF8C9185FFF2CF1D
:1003A000808185FFEDCFCE010E944B01E9CFDF9127
:1003B000CF910895833081F028F4813099F0823014
:1003C000A9F008958730A9F08830C9F08430B1F4DD
:1003D000809180008F7D03C0809180008F77809313
:1003E0008000089584B58F7784BD089584B58F7D8E
:1003F000FBCF8091B0008F778093B00008958091FB
:10040000B0008F7DF9CF1F93CF93DF93282F30E07B
:10041000F901E05DFE4F8491F901E45EFE4FD49155
:10042000F901E85FFE4FC491CC23A9F0162F81118A
:100430000E94DA01EC2FF0E0EE0FFF1FEC50FF4FAF
:10044000A591B4918FB7F894EC91111108C0D09593
:10045000DE23DC938FBFDF91CF911F910895DE2BB8
:10046000F8CFCF93DF9390E0FC01E45EFE4F249140
:10047000885F9E4FFC0184918823D1F090E0880F23
:10048000991FFC01E651FF4FA591B491FC01EC507E
:10049000FF4FC591D491623071F49FB7F8943C91AD
:1004A000822F809583238C93E8812E2B28839FBFF6
:1004B000DF91CF9108958FB7F894EC912E2B2C9368
:1004C0008FBFF6CF3FB7F8948091570190915801B4
:1004D000A0915901B0915A0126B5A89B05C02F3FA4
:1004E00019F00196A11DB11D3FBFBA2FA92F982F5A
:1004F0008827BC01CD01620F711D811D911D42E055
:10050000660F771F881F991F4A95D1F708950895A0
:1005100090E080E00895FB0101900020E9F7319719
:10052000AF01461B570BDC01ED91FC910280F3817A
:10053000E02D09948F929F92AF92BF92EF92FF921B
:100540000F931F93CF93DF93CDB7DEB7A1970FB66D
:10055000F894DEBF0FBECDBF7C01FA01CB0119A21A
:10056000223008F42AE08E010F5D1F4F822E912C5D
:10057000B12CA12CBF01A50194010E946C0CF901C2
:10058000CA016A300CF5605DD8016E938D01232B92
:10059000242B252B79F790E080E0109721F0BD0106
:1005A000C7010E948B02A1960FB6F894DEBF0FBE62
:1005B000CDBFDF91CF911F910F91FF90EF90BF9032
:1005C000AF909F908F900895695CDECF2F923F92FD
:1005D0004F925F926F927F928F929F92AF92BF9253
:1005E000CF92DF92EF92FF921F93CF93DF93EC01B4
:1005F0006A017B01722EAB019601CB01B6010E940C
:100600002B0B6EE171E0811126C046015701E89481
:10061000B7F82FEF3FEF4FE75FE7C501B4010E9446
:100620002B0B81110CC02FEF3FEF4FE75FE7C501A8
:10063000B4010E94CB0862E271E0181664F02FEF5B
:100640003FEF4FE75FE4C701B6010E94230A181687
:10065000B4F466E271E0CE01DF91CF911F91FF907B
:10066000EF90DF90CF90BF90AF909F908F907F9052
:100670006F905F904F903F902F900C948B022FEFD4
:100680003FEF4FE75FECC701B6010E94CB0887FD43
:10069000E0CF20E030E0A901C701B6010E94CB08FD
:1006A000312C212C87FF0DC0E881F9810190F08168
:1006B000E02D6DE2CE0109951C01F7FAF094F7F8F0
:1006C000F09410E060E070E080E09FE3711641F08C
:1006D00020E030E040E251E40E94D0081F5FF6CFF6
:1006E000A70196010E945F082B013C010E9442096C
:1006F0004B015C012AE0BC01A401CE010E949A02D8
:100700007C01E20CF31C1123E1F1C501B4010E944C
:1007100071099B01AC01C301B2010E945E084B014B
:100720005C01E881F9810190F081E02D6EE2CE015B
:100730000995E80EF91E115020F120E030E040E26A
:1007400051E4C501B4010E94280A2B013C010E941A
:1007500042094B01B12CA12C2AE0B501A401CE0124
:100760000E949A02E80EF91EC501B4010E947109A7
:100770009B01AC01C301B2010E945E084B015C0108
:10078000DACFC701DF91CF911F91FF90EF90DF90FB
:10079000CF90BF90AF909F908F907F906F905F9021
:1007A0004F903F902F900895CF93DF93EC0160E03E
:1007B0008E810E94030261E08E810E94030260E04C
:1007C0008E810E9403028BE891E00197F1F7DF919F
:1007D000CF910895CF92DF92EF92FF920F931F93E4
:1007E000CF93DF936C017C0187E0E80EF11CD0E031
:1007F000C0E0062F10E0B8010C2E02C07595679579
:100800000A94E2F76170F70181917F010E9403026F
:100810002196C430D10579F7C601DF91CF911F91A0
:100820000F91FF90EF90DF90CF900C94D403CF9274
:10083000DF92EF92FF920F931F93CF93DF93EC0120
:10084000F62E642F8C810E9403028D818F3F19F058
:1008500060E00E9403020F2D10E08F8584FF25C009
:100860006E0187E0C80ED11CF12CE12CB8010E2CD2
:1008700002C0759567950A94E2F76170F60181915F
:100880006F010E940302FFEFEF1AFF0A88E0E816EB
:10089000F10461F7CE01DF91CF911F910F91FF908D
:1008A000EF90DF90CF900C94D403B80184E075955D
:1008B00067958A95E1F7CE010E94EA036F2DCE017C
:1008C000DF91CF911F910F91FF90EF90DF90CF902C
:1008D0000C94EA0340E0682F8CE092E00C9417043B
:1008E000CF93DF93823029F490911B02986090930C
:1008F0001B0280931F021092200280E48093210249
:1009000080E18093220280E58093230261E0809160
:1009100010020E943102809111028F3F19F061E0B4
:100920000E94310261E0809112020E943102CCE00B
:10093000D2E09E012C50324080911B0284FD0BC0FE
:1009400084E090E021962817390744F461E08E8115
:100950000E943102EECF88E090E0F4CF8BE39DE07F
:100960000197F1F760E0809110020E94030260E0BD
:10097000809112020E940302809111028F3F19F0B0
:1009800060E00E94030280911B0284FD39C063E095
:100990008CE092E00E94EA03CBE4D6E4CE0101971A
:1009A000F1F763E08CE092E00E94EA032197F1F70F
:1009B00063E08CE092E00E94EA0383E592E0019715
:1009C000F1F762E08CE092E00E94EA0380911B0262
:1009D00080620E946A0484E080931C028CE00E9482
:1009E0006A0481E00E946A048BE39FE10197F1F7BA
:1009F00082E080931D0286E0DF91CF910C946A041F
:100A000080620E946A048BE496E40197F1F780917A
:100A10001B0280620E946A0483E592E00197F1F76D
:100A200080911B0280620E946A04D0CF90911F02C5
:100A3000891710F08FEF890FE82FF0E0E45FFD4F8A
:100A4000848980680C946A0441E00E94170481E064
:100A500090E008951F920F920FB60F9211242F93DA
:100A60003F934F935F936F937F938F939F93AF9336
:100A7000BF93EF93FF938FE691E00E944B01FF91AC
:100A8000EF91BF91AF919F918F917F916F915F9106
:100A90004F913F912F910F900FBE0F901F9018957F
:100AA0001F920F920FB60F9211242F938F939F9343
:100AB000EF93FF93E0917F01F09180018081E091BD
:100AC0008501F091860182FD1BC090818091880193
:100AD0008F5F8F7320918901821741F0E091880127
:100AE000F0E0E159FE4F958F80938801FF91EF91DF
:100AF0009F918F912F910F900FBE0F901F9018957F
:100B00008081F4CF1F920F920FB60F9211242F9372
:100B10003F938F939F93AF93BF9380915301909195
:100B20005401A0915501B09156013091520123E03A
:100B3000230F2D3758F50196A11DB11D20935201A9
:100B40008093530190935401A0935501B0935601A3
:100B50008091570190915801A0915901B0915A018B
:100B60000196A11DB11D8093570190935801A09348
:100B70005901B0935A01BF91AF919F918F913F91CD
:100B80002F910F900FBE0F901F90189526E8230FFE
:100B90000296A11DB11DD2CFEFE6F1E013821282C1
:100BA00088EE93E0A0E0B0E084839583A683B783CA
:100BB00084E091E09183808385EC90E09587848741
:100BC00084EC90E09787868780EC90E0918B808B17
:100BD00081EC90E0938B828B82EC90E0958B848B00
:100BE00086EC90E0978B868B118E128E138E148E6E
:100BF000ECE0F2E01382128286E191E0918380833F
:100C000087E084838FEF858386E0868385E0878312
:100C100084E0808783E0818782E082871386148660
:100C200015861686178681E00C947004789484B536
:100C3000826084BD84B5816084BD85B5826085BDD8
:100C400085B5816085BD80916E00816080936E0066
:100C50001092810080918100826080938100809158
:100C60008100816080938100809180008160809309
:100C700080008091B10084608093B1008091B000C9
:100C800081608093B00080917A00846080937A00C4
:100C900080917A00826080937A0080917A008160EE
:100CA00080937A0080917A00806880937A00109215
:100CB000C100E0917F01F091800182E08083E091AA
:100CC0007B01F0917C011082E0917D01F0917E0129
:100CD00080E1808310928701E0918301F09184018B
:100CE00086E08083E0918101F091820180818061C2
:100CF0008083E0918101F09182018081886080830E
:100D0000E0918101F0918201808180688083E0918F
:100D10008101F091820180818F7D808362E089E092
:100D20000E94310261E088E00E94310260E088E0C8
:100D30000E94030282E00E94700499E3292E91E050
:100D4000392E00E010E00E9462026B017C0180916C
:100D50006B0190916C01A0916D01B0916E01A701A2
:100D60009601281B390B4A0B5B0BDA01C901813252
:100D70009E44A105B10508F426C1C0926B01D09232
:100D80006C01E0926D01F0926E010E9462022B01F3
:100D90003C01812C912C5401D0E0C0E0C233D1053C
:100DA000D9F10E9462026419750986099709693CA4
:100DB00071058105910590F30E9462022B013C01AF
:100DC000219640E440937C0080917A008064809377
:100DD0007A0080917A0086FDFCCF80917800609146
:100DE0007900762F682F072E000C880B990B0E9434
:100DF000730920E030E040E054E40E945E089B016B
:100E0000AC010E94280A9B01AC01C501B4010E94FB
:100E10005F084B015C01C2CF24E73DE946E35AE39A
:100E2000C501B4010E94280A20E030E048E452E401
:100E30000E94D0080E94EB0A2BE734E14EE65FE304
:100E40000E94280A6093670170936801809369018A
:100E500090936A0120E030E040E251E40E94230ACE
:100E600018166CF461E088E00E94030281E00E94A1
:100E700016056AE271E08CE092E00E948B0280909D
:100E8000670190906801A0906901B0906A0120E02C
:100E900030E040E85FE3C501B4010E94230A181660
:100EA0000CF0E7C02AE037ED43EA5CE3C501B4018A
:100EB0000E94950A20E030E040E85FE30E945E086F
:100EC0009B01AC0164EF7DEF84E59DE30E94D008B7
:100ED00025ED38E749EE5DE30E945F08609363010A
:100EE00070936401809365019093660163E371E000
:100EF0008FE691E00E948B0240915F01509160016A
:100F0000609161017091620122E08FE691E00E94A0
:100F1000E60268E371E08FE691E00E948B0220E038
:100F200034E244E759E46091630170916401809177
:100F30006501909166010E94280A9B01AC0160E066
:100F400070E48CE996E40E94D00820915F01309112
:100F5000600140916101509162010E945F086093BD
:100F60005F0170936001809361019093620120E0C2
:100F700030E040E85FE30E94230A87FD0DC061E096
:100F800088E00E94030281E00E9416056AE271E097
:100F90008CE092E00E948B0220E030E0A901609199
:100FA0005F017091600180916101909162010E94E6
:100FB000CB0887FF08C010925F0110926001109269
:100FC00061011092620180915B0190915C01A0919E
:100FD0005D01B0915E01A7019601281B390B4A0BF8
:100FE0005B0BDA01C90180349244AF40B105F0F0E7
:100FF000C0925B01D0925C01E0925D01F0925E01D3
:1010000080E00E9416056BE371E08CE092E00E94A4
:101010008B02409167015091680160916901709164
:101020006A0122E08CE092E00E94E602F1018491E4
:10103000E5E2F1E0C491E1E1F1E0D491D1112EC0FB
:1010400060E088E00E94030281E00E94160562E4ED
:1010500071E08CE092E00E948B020115110509F409
:1010600072CE0E943701882309F46DCE0E940000E1
:101070006ACEA5019401C501B4010E94280A20E0AE
:1010800030E040E85FE30E945E089B01AC0163E34F
:1010900073E38BE990E40E94D00820CF81110E9475
:1010A000DA01ED2FF0E0EE0FFF1FE250FF4FA591A8
:1010B000B4918C91C82309F4C3CFCFCF5058BB272C
:1010C000AA270E9476080C94E9090E94DB0938F0EF
:1010D0000E94E20920F039F49F3F19F426F40C94A1
:1010E000D8090EF4E095E7FB0C94D209E92F0E9491
:1010F000FA0958F3BA17620773078407950720F0B7
:1011000079F4A6F50C941C0A0EF4E0950B2EBA2F78
:10111000A02D0B01B90190010C01CA01A0011124FD
:10112000FF27591B99F0593F50F4503E68F11A16A9
:10113000F040A22F232F342F4427585FF3CF46953A
:1011400037952795A795F0405395C9F77EF41F165C
:10115000BA0B620B730B840BBAF09150A1F0FF0F26
:10116000BB1F661F771F881FC2F70EC0BA0F621F12
:10117000731F841F48F4879577956795B795F79502
:101180009E3F08F0B0CF9395880F08F09927EE0F97
:101190009795879508950E94AE0908F481E0089517
:1011A0000E94E4080C94E9090E94E20958F00E94A8
:1011B000DB0940F029F45F3F29F00C94D20951116A
:1011C0000C941D0A0C94D8090E94FA0968F399231B
:1011D000B1F3552391F3951B550BBB27AA27621733
:1011E0007307840738F09F5F5F4F220F331F441F40
:1011F000AA1FA9F335D00E2E3AF0E0E832D0915074
:101200005040E695001CCAF72BD0FE2F29D0660F60
:10121000771F881FBB1F261737074807AB07B0E8A3
:1012200009F0BB0B802DBF01FF2793585F4F3AF0A9
:101230009E3F510578F00C94D2090C941D0A5F3F33
:10124000E4F3983ED4F3869577956795B795F7952F
:101250009F5FC9F7880F911D9695879597F9089517
:10126000E1E0660F771F881FBB1F621773078407B3
:10127000BA0720F0621B730B840BBA0BEE1F88F7C2
:10128000E09508950E94020A88F09F5798F0B92FC0
:101290009927B751B0F0E1F0660F771F881F991FAB
:1012A0001AF0BA95C9F714C0B13091F00E941C0A27
:1012B000B1E008950C941C0A672F782F8827B85F37
:1012C00039F0B93FCCF3869577956795B395D9F703
:1012D0003EF490958095709561957F4F8F4F9F4F0D
:1012E0000895E89409C097FB3EF490958095709519
:1012F00061957F4F8F4F9F4F9923A9F0F92F96E962
:10130000BB279395F695879577956795B795F111D6
:10131000F8CFFAF4BB0F11F460FF1BC06F5F7F4F73
:101320008F4F9F4F16C0882311F096E911C0772385
:1013300021F09EE8872F762F05C0662371F096E88E
:10134000862F70E060E02AF09A95660F771F881F5D
:10135000DAF7880F9695879597F90895990F000801
:10136000550FAA0BE0E8FEEF16161706E807F90777
:10137000C0F012161306E407F50798F0621B730B12
:10138000840B950B39F40A2661F0232B242B252B93
:1013900021F408950A2609F4A140A6958FEF811D36
:1013A000811D089597F99F6780E870E060E00895D7
:1013B0009FEF80EC089500240A941616170618066D
:1013C0000906089500240A94121613061406050649
:1013D0000895092E0394000C11F4882352F0BB0FDA
:1013E00040F4BF2B11F460FF04C06F5F7F4F8F4F3D
:1013F0009F4F089557FD9058440F551F59F05F3F78
:1014000071F04795880F97FB991F61F09F3F79F026
:1014100087950895121613061406551FF2CF4695A8
:10142000F1DF08C0161617061806991FF1CF86952A
:101430007105610508940895E894BB27662777270E
:10144000CB0197F908950E94AE0908F48FEF089533
:101450000E943B0A0C94E9090E94DB0938F00E94C3
:10146000E20920F0952311F00C94D2090C94D809CC
:1014700011240C941D0A0E94FA0970F3959FC1F380
:10148000950F50E0551F629FF001729FBB27F00D32
:10149000B11D639FAA27F00DB11DAA1F649F662787
:1014A000B00DA11D661F829F2227B00DA11D621FD6
:1014B000739FB00DA11D621F839FA00D611D221F90
:1014C000749F3327A00D611D231F849F600D211D74
:1014D000822F762F6A2F11249F5750409AF0F1F0F7
:1014E00088234AF0EE0FFF1FBB1F661F771F881F60
:1014F00091505040A9F79E3F510580F00C94D209BD
:101500000C941D0A5F3FE4F3983ED4F386957795DB
:101510006795B795F795E7959F5FC1F7FE2B880F05
:10152000911D9695879597F90895FA01EE0FFF1F83
:10153000309621053105A1F16115710561F48038FE
:10154000BFE39B0749F168949038810561F08038CA
:10155000BFEF9B0741F099234AF5FF3FE1053105B5
:10156000210519F1E8940894E795D901AA2329F4F3
:10157000AB2FBE2FF85FD0F310C0FF5F70F4A695BD
:10158000E0F7F73950F019F0FF3A38F49F779F935E
:101590000DD00F9007FC9058089546F00C94D80990
:1015A00060E070E080E89FE308954FE79F775F93E6
:1015B0004F933F932F930E94F00B2F913F914F91A8
:1015C0005F910E94280A0C94380B19F416F40C94BD
:1015D000D8090C946A0B0E94020AB8F39923C9F344
:1015E000B6F39F57550B87FF0E94780B0024A0E6A7
:1015F00040EA900180585695979528F4805C660FD4
:10160000771F881F20F026173707480730F4621B22
:10161000730B840B202931294A2BA6951794079424
:10162000202531254A2758F7660F771F881F20F09D
:1016300026173707480730F4620B730B840B200D15
:10164000311D411DA09581F7B901842F9158880F54
:101650009695879508950E94AE09880B990B089579
:1016600029F416F00C94D2090C941C0A0C94D80995
:101670000E94020AA8F39638A0F707F80F92E894A0
:101680002BE33AEA48EB5FE70E943E0A0F920F9283
:101690000F924DB75EB70F920E94380CE8E6F0E06B
:1016A0000E947F0B4F915F91EF91FF91E595EE1FA7
:1016B000FF1F49F0FE57E0684427EE0F441FFA95DC
:1016C000E1F74195550B0E94B20B0F9007FE0C9469
:1016D000A60B08959F3F31F0915020F487957795A0
:1016E0006795B795880F911D9695879597F90895F9
:1016F00091505040660F771F881FD2F70895DF93EF
:10170000CF931F930F93FF92EF92DF927B018C0197
:10171000689406C0DA2EEF010E943B0AFE01E894AD
:10172000A5912591359145915591A6F3EF010E9420
:101730007608FE019701A801DA9469F7DF90EF902F
:10174000FF900F911F91CF91DF9108959B01AC0104
:1017500060E070E080E89FE30C94D0080C94D2091C
:101760000C946A0B0E94020AD8F39923C9F3940FD0
:10177000511DA3F39150504094F059F0882332F05A
:10178000660F771F881F91505040C1F79E3F51054B
:101790002CF7880F911D9695879597F908955F3FCF
:1017A000ACF0983E9CF0BB27869577956795B795EA
:1017B00008F4B1609395C1F7BB0F58F711F460FFBF
:1017C000E8CF6F5F7F4F8F4F9F4FE3CF0C941D0A81
:1017D00016F00C946A0B0C94D80968940C94D209F6
:1017E0000E94020AA8F39923C1F3AEF3DF93CF93CB
:1017F0001F930F93FF92C92FDD2788232AF021978B
:10180000660F771F881FDAF720E030E040E85FEBD3
:101810009FE3883920F0803E38F021968F770E9430
:101820005F08E0E9F0E004C00E945F08EDEBF0E043
:101830000E947F0B8B01BE01EC01FB2E6F577109DB
:101840007595771F880B990B0E94730928E132E781
:1018500041E35FE30E943B0AAF2D9801AE01FF9088
:101860000F911F91CF91DF910E9476080C94E909A6
:10187000FA01DC01AA0FBB1F9B01AC01BF5728F482
:10188000222733274427507820C0B75190F4AB2F3C
:101890000024469537952795011CA395D2F3002087
:1018A00071F0220F331F441FB395DAF30ED00C945E
:1018B0005E0861307105A0E88A07B94630F49B01E3
:1018C000AC016627772788279078309621F020830F
:1018D0003183428353830895A1E21A2EAA1BBB1BB6
:1018E000FD010DC0AA1FBB1FEE1FFF1FA217B307EC
:1018F000E407F50720F0A21BB30BE40BF50B661F02
:10190000771F881F991F1A9469F7609570958095C5
:1019100090959B01AC01BD01CF010895EE0FFF1F13
:101920000590F491E02D0994F894FFCF0000000099
:101930006D01CD00FA00BA012B0109011D01000063
:1019400000002405CD00880287026E616E00696E7A
:1019500066006F76660054524950202020200043D4
:10196000493A20000D0A0049524D533A2000524591
:0E19700053455420202020202020202020003D
:107E0000112484B714BE81FFF0D085E080938100F7
:107E100082E08093C00088E18093C10086E0809377
:107E2000C20080E18093C4008EE0C9D0259A86E02C
:107E300020E33CEF91E0309385002093840096BBD3
:107E4000B09BFECF1D9AA8958150A9F7CC24DD24C4
:107E500088248394B5E0AB2EA1E19A2EF3E0BF2EE7
:107E6000A2D0813461F49FD0082FAFD0023811F036
:107E7000013811F484E001C083E08DD089C08234E0
:107E800011F484E103C0853419F485E0A6D080C0E4
:107E9000853579F488D0E82EFF2485D0082F10E0AE
:107EA000102F00270E291F29000F111F8ED06801E7
:107EB0006FC0863521F484E090D080E0DECF843638
:107EC00009F040C070D06FD0082F6DD080E0C81688
:107ED00080E7D80618F4F601B7BEE895C0E0D1E017
:107EE00062D089930C17E1F7F0E0CF16F0E7DF06D8
:107EF00018F0F601B7BEE89568D007B600FCFDCFD4
:107F0000A601A0E0B1E02C9130E011968C91119780
:107F100090E0982F8827822B932B1296FA010C0160
:107F200087BEE89511244E5F5F4FF1E0A038BF0790
:107F300051F7F601A7BEE89507B600FCFDCF97BE46
:107F4000E89526C08437B1F42ED02DD0F82E2BD052
:107F50003CD0F601EF2C8F010F5F1F4F84911BD097
:107F6000EA94F801C1F70894C11CD11CFA94CF0C13
:107F7000D11C0EC0853739F428D08EE10CD085E9AC
:107F80000AD08FE07ACF813511F488E018D01DD067
:107F900080E101D065CF982F8091C00085FFFCCF94
:107FA0009093C60008958091C00087FFFCCF809118
:107FB000C00084FD01C0A8958091C6000895E0E648
:107FC000F0E098E1908380830895EDDF803219F02E
:107FD00088E0F5DFFFCF84E1DECF1F93182FE3DFCA
:107FE0001150E9F7F2DF1F91089580E0E8DFEE27F6
:047FF000FF270994CA
:027FFE00040479
:00000001FF
