:0C0000000C942A000C9400000C940000EA
:10000C000C9400000C9400000C9400000C94000064
:10001C000C9400000C9400000C9400000C9445000F
:10002C000C9400000C9400000C9400000C94000044
:10003C000C9400000C9400000C9400000C94000034
:10004C000C9400000C940000F894EE27ECBBF1E04B
:10005C00FBBFEBBFE5BF8DE0A2E0BB27ED938A951C
:10006C00E9F780E094E0A0E6ED930197E9F7EFE57E
:10007C00EDBFE4E0EEBFC0E6D1E00C946400AA93BF
:10008C00EA93FA93EFB7EA931A931FB1E12FF0E0DA
:10009C00E130A0E0FA0719F4E2B3A1E006C0E230C7
:1000AC00A0E0FA0721F4E2B3A2E0EA27E2BB19913F
:1000BC00E991EFBFF991E991A9911895E0E0EABBBC
:1000CC00EBBBE0E4E7BBE0E0E8BBE4BBE5BBE3E0B3
:1000DC00E1BBE0E0E2BBE3BFE2BFECBFEFBDEEBDD6
:1000EC00EDBDECBDE7BDE6BDEBBDEABDE9BDE8BDD0
:1000FC00E2BDE5BDE4BDE3BDE9BFE5BFE4BFEAB9E0
:10010C00E0E8E8B9E0E0E0BFE6B9E1ECEDB9E0E049
:10011C00EEB9EEB1EFB1E0E0E6BF7894FFCFFFCFE0
:00000001FF
