:100000000C945D000C94D6030C94AF030C94850003
:100010000C9485000C9485000C9485000C9485004C
:100020000C9485000C9485000C9485000C9485003C
:100030000C9485000C9485000C9485000C9485002C
:100040000C9465030C9485000C9433030C940D03FD
:100050000C9485000C9485000C9485000C9485000C
:100060000C9485000C9485000000000024002700FB
:100070002A0000000000250028002B0004040404CE
:100080000404040402020202020203030303030342
:10009000010204081020408001020408102001021F
:1000A00004081020000000080002010000030407FB
:1000B0000000000000000000690611241FBECFEF01
:1000C000D8E0DEBFCDBF11E0A0E0B1E0E2E2F1E1B7
:1000D00002C005900D92A632B107D9F721E0A6E241
:1000E000B1E001C01D92A83DB207E1F710E0CDE5F7
:1000F000D0E004C02197FE010E948908CC35D107C9
:10010000C9F70E94FD030C948F080C940000AF9275
:10011000BF92CF92DF92EF92FF920F931F93CF93F4
:10012000DF936C017B018B01040F151FEB015E0156
:10013000AE18BF08C017D10759F06991D601ED91EB
:10014000FC910190F081E02DC6010995892B79F78A
:10015000C501DF91CF911F910F91FF90EF90DF903C
:10016000CF90BF90AF900895FC01538D448D252F03
:1001700030E0842F90E0821B930B541710F0CF9641
:10018000089501970895FC01918D828D981761F073
:10019000A28DAE0FBF2FB11D5D968C91928D9F5F8A
:1001A0009F73928F90E008958FEF9FEF0895FC0169
:1001B000918D828D981731F0828DE80FF11D858D1C
:1001C00090E008958FEF9FEF0895FC01918D228DAF
:1001D000892F90E0805C9F4F821B91098F73992734
:1001E00008958BE391E00E94E50021E0892B09F45A
:1001F00020E0822F089580E090E0892B29F00E9472
:10020000F10081110C9400000895FC01A48DA80F49
:10021000B92FB11DA35ABF4F2C91848D90E0019648
:100220008F739927848FA689B7892C93A089B18968
:100230008C91837080648C93938D848D981306C009
:100240000288F389E02D80818F7D80830895EF926D
:10025000FF920F931F93CF93DF93EC0181E0888F80
:100260009B8D8C8D98131AC0E889F989808185FF50
:1002700015C09FB7F894EE89FF896083E889F989F2
:1002800080818370806480839FBF81E090E0DF91F4
:10029000CF911F910F91FF90EF900895F62E0B8D47
:1002A00010E00F5F1F4F0F731127E02E8C8D8E1102
:1002B0000CC00FB607FCFACFE889F989808185FF69
:1002C000F5CFCE010E940501F1CFEB8DEC0FFD2F94
:1002D000F11DE35AFF4FF0829FB7F8940B8FEA8924
:1002E000FB8980818062CFCFCF93DF93EC01888D33
:1002F0008823B9F0AA89BB89E889F9898C9185FDA1
:1003000003C0808186FD0DC00FB607FCF7CF8C912E
:1003100085FFF2CF808185FFEDCFCE010E940501E0
:10032000E9CFDF91CF91089590E0FC01EC55FF4FAC
:100330002491FC01E057FF4F3491FC01E458FF4F3A
:10034000E491EE23C9F0222339F0233001F1A8F41F
:10035000213019F1223029F1F0E0EE0FFF1FEE58A5
:10036000FF4FA591B4918FB7F894EC91611126C01D
:1003700030953E233C938FBF08952730A9F0283055
:10038000C9F0243049F7809180008F7D03C08091AF
:1003900080008F7780938000DFCF84B58F7784BD16
:1003A000DBCF84B58F7DFBCF8091B0008F778093BA
:1003B000B000D2CF8091B0008F7DF9CF3E2BDACF45
:1003C000E7EAF0E0E491E33039F160F4E130D1F0B4
:1003D000E230E9F060E0803891050CF061E083E004
:1003E0000C949401E73011F1E83041F1E43091F7D9
:1003F0002091800020622093800090938B00809356
:100400008A00089594B5906894BD87BD089594B509
:10041000906294BD88BD089520918000206820934B
:100420008000909389008093880008959091B00097
:1004300090689093B0008093B30008959091B000BD
:1004400090629093B0008093B4000895CF93DF93AF
:1004500090E0FC01E057FF4F249184589F4FFC012E
:1004600084918823D1F090E0880F991FFC01E8590E
:10047000FF4FA591B491FC01EE58FF4FC591D49167
:1004800061110EC09FB7F8948C91E22FE0958E23F6
:100490008C932881E223E8839FBFDF91CF91089559
:1004A0008FB7F894EC91E22BEC938FBFF6CF3FB768
:1004B000F8948091280190912901A0912A01B0918E
:1004C0002B0126B5A89B05C02F3F19F00196A11D51
:1004D000B11D3FBFBA2FA92F982F8827BC01CD018E
:1004E000620F711D811D911D42E0660F771F881FED
:1004F000991F4A95D1F708958F929F92AF92BF921C
:10050000CF92DF92EF92FF924B015C010E94570263
:100510006B017C010E9457026C197D098E099F09AD
:10052000683E734081059105A8F321E0821A910885
:10053000A108B10888EEC80E83E0D81EE11CF11CAA
:1005400081149104A104B10429F7FF90EF90DF908A
:10055000CF90BF90AF909F908F9008950895809115
:10056000260191E089278093260160E0811101C076
:1005700061E086E00C949401FC0101900020E9F711
:100580003197AF01481B590BBC018BE391E00C94F0
:1005900087008F929F92AF92BF920F931F93CF933A
:1005A000DF93CDB7DEB7A1970FB6F894DEBF0FBECD
:1005B000CDBF19A2423008F44AE08E010F5D1F4FF3
:1005C000842E912CB12CA12CA50194010E946708C6
:1005D000E62FB901CA01EA30F4F4E05DD801EE93E8
:1005E0008D01232B242B252B79F790E080E01097A9
:1005F00019F0CD010E94BC02A1960FB6F894DEBF9F
:100600000FBECDBFDF91CF911F910F91BF90AF90E3
:100610009F908F900895E95CE1CF1F920F920FB6E3
:100620000F9211242F933F934F935F936F937F9378
:100630008F939F93AF93BF93EF93FF938BE391E0DF
:100640000E940501FF91EF91BF91AF919F918F9112
:100650007F916F915F914F913F912F910F900FBEBE
:100660000F901F9018951F920F920FB60F921124A2
:100670002F938F939F93EF93FF93E0914B01F09112
:100680004C018081E0915101F091520182FD1BC02B
:100690009081809154018F5F8F7320915501821753
:1006A00041F0E0915401F0E0E55CFE4F958F8093BE
:1006B0005401FF91EF919F918F912F910F900FBE59
:1006C0000F901F9018958081F4CF1F920F920FB654
:1006D0000F9211242F933F938F939F93AF93BF93C8
:1006E00080912C0190912D01A0912E01B0912F01AC
:1006F0003091270123E0230F2D3758F50196A11DD6
:10070000B11D2093270180932C0190932D01A0937C
:100710002E01B0932F018091280190912901A09181
:100720002A01B0912B010196A11DB11D80932801D2
:1007300090932901A0932A01B0932B01BF91AF910F
:100740009F918F913F912F910F900FBE0F901F900F
:10075000189526E8230F0296A11DB11DD2CF1F9236
:100760000F920FB60F9211242F933F934F935F93E5
:100770006F937F938F939F93AF93BF93EF93FF9369
:10078000E0910201F09103010995FF91EF91BF9172
:10079000AF919F918F917F916F915F914F913F9119
:1007A0002F910F900FBE0F901F9018951F920F92D0
:1007B0000FB60F9211242F933F934F935F936F9334
:1007C0007F938F939F93AF93BF93EF93FF93E091AA
:1007D0000001F09101010995FF91EF91BF91AF9157
:1007E0009F918F917F916F915F914F913F912F9149
:1007F0000F900FBE0F901F901895CF93DF9300D0EE
:1008000000D0CDB7DEB7789484B5826084BD84B55E
:10081000816084BD85B5826085BD85B5816085BDFB
:1008200080916E00816080936E00109281008091B3
:10083000810082608093810080918100816080933B
:100840008100809180008160809380008091B10060
:1008500084608093B1008091B00081608093B0008B
:1008600080917A00846080937A0080917A0082601F
:1008700080937A0080917A00816080937A008091E1
:100880007A00806880937A001092C100E0914B0159
:10089000F0914C0182E08083E0914701F0914801A2
:1008A0001082E0914901F0914A0180E18083109229
:1008B0005301E0914F01F091500186E08083E09177
:1008C0004D01F0914E01808180618083E0914D0166
:1008D000F0914E01808188608083E0914D01F0911C
:1008E0004E01808180688083E0914D01F0914E013E
:1008F00080818F7D808361E085E00E94260260E038
:1009000085E00E94940161E083E00E94260260E09D
:1009100083E00E94940161E086E00E94260261E08B
:1009200086E00E94940160E082E00E9426028FEA45
:1009300092E09093010180930001809169008C7F87
:10094000826080936900E89A68EE73E080E090E04E
:100950000E947C0280E0282E80E0382E01E010E02A
:100960008FB7F89420912C0130912D0140912E01E8
:1009700050912F0129833A834B835C838FBF30E4EE
:1009800030937C0080917A00806480937A0080911B
:100990007A0086FDFCCF8091780060917900762FF7
:1009A000682F072E000C880B990B0E94400720E04F
:1009B00030E04AEF53E40E94F50720E030E040E8E1
:1009C0005AE30E94F5076B017C01AC019B010E9478
:1009D0006208882309F454C086E191E00E94BC02B9
:1009E00082E291E00E94BC02C701B6010E940807A2
:1009F0009B01645271096530710508F4D3C042E06F
:100A000050E050933A01409339018091390190911F
:100A10003A01273231050CF4CFC0029709F438C1EE
:100A20008091380181110FC089819A81AB81BC818D
:100A30008093340190933501A0933601B093370130
:100A400081E0809338018091340190913501A0912B
:100A50003601B091370129813A814B815C81281B95
:100A6000390B4A0B5B0BDA01C901813D9740A105A7
:100A7000B10508F4A1C010933A01009339019CC05C
:100A800046015701E894B7F82FEF3FEF4FE75FE7D4
:100A9000C501B4010E94620881110DC02FEF3FEF24
:100AA0004FE75FE7C501B4010E94030718161CF465
:100AB0008AE191E093CF2FEF3FEF4FE75FE4C7016B
:100AC000B6010E94F00718161CF48EE191E086CF63
:100AD0002FEF3FEF4FE75FECC701B6010E9403071E
:100AE00087FDF3CF20E030E0A901C701B6010E94E5
:100AF000030787FF54C06DE28BE391E00E9427015A
:100B0000C701B60190582AE037ED43EA5BE30E9443
:100B100097062B013C010E940F074B015C010E94CC
:100B20003E079B01AC01C301B2010E9496062B0156
:100B30003C014AE0C501B4010E94C9026EE28BE3A8
:100B400091E00E94270120E030E040E251E4C3013F
:100B5000B2010E94F5072B013C010E940F074B01D7
:100B6000B12CA12C4AE0C501B4010E94C902C50103
:100B7000B4010E943E079B01AC01C301B2010E9477
:100B8000960620E030E040E251E40E94F5070E9422
:100B90000F0790E080E04AE00E94C90221CFC70120
:100BA000B601B1CF6330710508F02FCF10923A0132
:100BB00010923901109238018091390190913A01D7
:100BC000009709F057C08091300190913101A091B8
:100BD0003201B091330129813A814B815C81281B1C
:100BE000390B4A0B5B0BDA01C90181319742A10530
:100BF000B10540F189819A81AB81BC81809330013C
:100C000090933101A0933201B093330161E083E00E
:100C10000E94260286E990E00E94E00168EE73E0FF
:100C200080E090E00E947C0261E083E00E94260266
:100C300060E083E00E94940168EE73E080E090E061
:100C40000E947C0260E085E00E94940161E083E004
:100C50000E94260260E083E00E9494012114310486
:100C600009F47ECE0E94F100882309F479CE0E9417
:100C7000000076CE8130910549F461E083E00E9466
:100C8000260286E990E00E94E001E8CF029731F762
:100C900061E085E00E94940161E083E00E94260209
:100CA00061E083E00E94940160ED77E080E090E0F5
:100CB0000E947C0261E083E00E94260260E083E003
:100CC0000E94940168EE73E080E090E00E947C0254
:100CD000C5CFEBE3F1E01382128288EE93E0A0E04F
:100CE000B0E084839583A683B78388E091E0918305
:100CF000808385EC90E09587848784EC90E09787EB
:100D0000868780EC90E0918B808B81EC90E0938BD8
:100D1000828B82EC90E0958B848B86EC90E0978BB5
:100D2000868B118E128E138E148E08955058BB2709
:100D3000AA270E94AE060C94B6070E94A80738F0B6
:100D40000E94AF0720F039F49F3F19F426F40C9469
:100D5000A5070EF4E095E7FB0C949F07E92F0E948E
:100D6000C70758F3BA17620773078407950720F07F
:100D700079F4A6F50C94E9070EF4E0950B2EBA2F42
:100D8000A02D0B01B90190010C01CA01A001112491
:100D9000FF27591B99F0593F50F4503E68F11A163D
:100DA000F040A22F232F342F4427585FF3CF4695CE
:100DB00037952795A795F0405395C9F77EF41F16F0
:100DC000BA0B620B730B840BBAF09150A1F0FF0FBA
:100DD000BB1F661F771F881FC2F70EC0BA0F621FA6
:100DE000731F841F48F4879577956795B795F79596
:100DF0009E3F08F0B0CF9395880F08F09927EE0F2B
:100E00009795879508950E947B0708F481E00895DF
:100E10000E940F076894B1110C94EA0708950E948C
:100E2000CF0788F09F5798F0B92F9927B751B0F0A6
:100E3000E1F0660F771F881F991F1AF0BA95C9F75E
:100E400014C0B13091F00E94E907B1E008950C940C
:100E5000E907672F782F8827B85F39F0B93FCCF3BF
:100E6000869577956795B395D9F73EF490958095DB
:100E7000709561957F4F8F4F9F4F0895E89409C0FB
:100E800097FB3EF490958095709561957F4F8F4FBD
:100E90009F4F9923A9F0F92F96E9BB279395F695D3
:100EA000879577956795B795F111F8CFFAF4BB0F51
:100EB00011F460FF1BC06F5F7F4F8F4F9F4F16C0B5
:100EC000882311F096E911C0772321F09EE8872F3F
:100ED000762F05C0662371F096E8862F70E060E0FB
:100EE0002AF09A95660F771F881FDAF7880F969574
:100EF000879597F90895990F0008550FAA0BE0E818
:100F0000FEEF16161706E807F907C0F012161306CB
:100F1000E407F50798F0621B730B840B950B39F40B
:100F20000A2661F0232B242B252B21F408950A2671
:100F300009F4A140A6958FEF811D811D089597F9B1
:100F40009F6780E870E060E008959FEF80EC08956F
:100F500000240A9416161706180609060895002498
:100F60000A9412161306140605060895092E039412
:100F7000000C11F4882352F0BB0F40F4BF2B11F486
:100F800060FF04C06F5F7F4F8F4F9F4F089557FDE5
:100F90009058440F551F59F05F3F71F04795880FE7
:100FA00097FB991F61F09F3F79F08795089512167E
:100FB00013061406551FF2CF4695F1DF08C016162A
:100FC00017061806991FF1CF8695710561050894DB
:100FD0000895E894BB2766277727CB0197F90895F2
:100FE0000E947B0708F48FEF08950E9408080C9474
:100FF000B6070E94A80738F00E94AF0720F095239B
:1010000011F00C949F070C94A50711240C94EA0787
:101010000E94C70770F3959FC1F3950F50E0551FCD
:10102000629FF001729FBB27F00DB11D639FAA273D
:10103000F00DB11DAA1F649F6627B00DA11D661F8C
:10104000829F2227B00DA11D621F739FB00DA11DAD
:10105000621F839FA00D611D221F749F3327A00D67
:10106000611D231F849F600D211D822F762F6A2F03
:1010700011249F5750409AF0F1F088234AF0EE0F68
:10108000FF1FBB1F661F771F881F91505040A9F795
:101090009E3F510580F00C949F070C94EA075F3F38
:1010A000E4F3983ED4F3869577956795B795F795D1
:1010B000E7959F5FC1F7FE2B880F911D9695879549
:1010C00097F908950E947B07880B990B0895A1E278
:1010D0001A2EAA1BBB1BFD010DC0AA1FBB1FEE1FB2
:1010E000FF1FA217B307E407F50720F0A21BB30BFD
:1010F000E40BF50B661F771F881F991F1A9469F779
:1011000060957095809590959B01AC01BD01CF01D4
:101110000895EE0FFF1F0590F491E02D0994F894C7
:02112000FFCFFF
:10112200AE02AE020000000027018700B400740185
:10113200E500C300D7006E616E00696E66006F76CF
:0611420066000D0A00002A
:00000001FF
