:1000E0004E6869657420646F3A2000274300446FAE
:1000F000206E6869657420646F2E2E2E0053616E29
:0D0100006754616F436C75622E4E6574008C
:10013000EF1392A0EFA2E192A1A2E292A2D2A3D2E7
:10014000A4C2A3C2A420A5FD30A5FDD2A6AFB0C213
:01015000A608
:01015100228B
:1001DA00E4FDFCC3ED9FEC9E50070DBD00010C80B1
:0101EA00F222
:0101EB0022F1
:10015200E4FDFCC3ED9FEC9E5015E4FBFA0BBB00E3
:0F016200010AEB647D4A70F50DBD00010C80E4CD
:01017100226B
:0301C70012019290
:1001CA00D2827F037E001201DAC2827F320201DA12
:10019200EF139284EFC313139285EF1313543F139B
:0C01A2009286EF131313541F1392872250
:1001EC00AB07EBC4540FFF1201C7AF03120192020D
:0201FC0001CA36
:0C01FE007F011201EC7F0A7E000201DA92
:10006300E4FF1201927F147E00120152C280C2810A
:100073007F031201C77F057E001201521201CA7F5E
:10008300647E001201DA1201CA7F02120192120188
:10009300CA7F281201EC7F0C1201EC7F061201ECDF
:0500A3007F010201ECE9
:10017200ED7006EF2480FA8004EF24C0FA7FE87E57
:10018200031201DAAF021201EC7F327E000201DAC1
:04020A00842430FF19
:08020E00D2801201ECC2802233
:10010D008B098A0A890BAB09AA0AA90B1201AEFF4A
:10011D00601012020E7401250BF50BE4350AF50A79
:03012D0080E42249
:1000A8008F087BFF7A0079E012010DE50875F0648E
:1000B80012020AE50875F06484E5F075F00A120288
:1000C8000AE50875F00A84E5F02430FF12020E7B79
:0800D800FF7A0079EB02010D33
:03000B00020003ED
:03000300B2A7326F
:10000E00758902758AEC758CECD28CD2A9D2AF129E
:10001E0000637FC87E001201527BFF7A0079EE12D8
:10002E00010D7FF47E011201521201FE7D01E4FFEB
:10003E001201727BFF7A0079FD12010DE4FDFF12B1
:10004E000172E4FF1201308F0C1200A87FF47E01C2
:05005E0012015280E7D1
:03000000020216E3
:0C021600787FE4F6D8FD75810C02000E24
:1001AE00BB010689828A83E0225002E722BBFE024F
:0901BE00E32289828A83E4932282
:00000001FF
