:03000000020130CA
:0C013000787FE4F6D8FD758109020152C9
:1000A200E4FDFCC3ED9FEC9E5015E4FBFA0BBB0094
:0F00B200010AEB647B4A70F50DBD00010C80E480
:0100C100221C
:0B013C00EF1FAC0670011E4C70F62295
:1000FD00D2A47F087E0012013CC2A47F507E001264
:0B010D00013CD2A47F227E0002013CD6
:1000C200E4FD7B08C2A4EDC313FDD2A430A4034314
:0D00D20005807F047E0012013CDBE9AF05D4
:0100DF0022FE
:02007900AD07D1
:10007B007B087A00C2A4ED1392A47F057E001201C7
:10008B003CD2A4EDC313FDEB1B70011AEB4A70E4D9
:07009B007F047E0002013C1E
:10004D001200FD7FCC1200797F441200797F0A7E69
:10005D000012013C1200FD7FCC1200797FBE120010
:0C006D00791200C28F081200C28F092215
:0B014700D2A0D2A1D288D2A8D2AF2251
:10011800E4FFFEEF25E0FF30A0FD30A10343070117
:0701280020A0FD0EBE08EC53
:01012F0022AD
:1000E000E4FEEF30E704D2A28002C2A2EF25E0FFD7
:0C00F00030A0FD20A0FD0EBE08E8D2A24A
:0100FC0022E1
:03000300020006F2
:10000600C0E0C0D075D000C001C002C003C004C0AB
:0500160005C006C00753
:10001B00120118A907B9AA0D12004DAF081200E082
:0F002B00AF091200E0B90102B2A6B90202B2A7F2
:10003A00D007D006D005D004D003D002D001D0D04A
:03004A00D0E032D1
:09015200120147C2A6C2A780FEFB
:00000001FF
