:030000000201E515
:0C01E500787FE4F6D8FD75811D02022C25
:10027100010926011728010A24041A0000000004BC
:100281001300000000011800010800040F00000025
:0702910000040B0000000057
:10029900EF1392A0EFA2E192A1A2E292A2D2A3D27D
:1002A900A4C2A3C2A420A5FD30A5FDD2A6AF80C2D9
:0102B900A69E
:0102BA002221
:1002DB00C2AF438902758CD8758AD8D28CD2A9D279
:0202EB00AF2240
:03000B000202BB33
:1002BB00C0E0C0D0B2A7E51D2428F51DE4351CF520
:1002CB001CE4351BF51BE4351AF51AD0D0D0E032FF
:0902FE00C2AFD288D2A8D2AF220F
:03000300020006F2
:03000600B2903283
:10000E00C292C291D2901202FE1202DB851D16859B
:10001E001C15851B14851A13C3E51D9516FFE51CCB
:10002E009515FEE51B9514FDE51A9513FC7B407A9C
:10003E0042790F7800D31202ED50DDE4FF120299DF
:10004E008F19851D16851C15851B14851A13AF0A6D
:10005E00EF3395E0FEAD197C00C3ED9FEE6480F8A2
:10006E007480984013AB17EB3395E0FAD3ED9BEA0F
:10007E006480F87480984003751802C3ED9FEE6497
:10008E0080F8EC6480984019AF09EF3395E0FED309
:10009E00ED9FEE6480F8EC6480985005E4F518F559
:1000AE0008AF09EF3395E0FED3ED9FEE6480F8ECD8
:1000BE00648098403FE51864026039E508700F854A
:1000CE00160E85150D85140C85130B750801C3E5E9
:1000DE0016950EFFE515950DFEE514950CFDE51331
:1000EE00950BFC7B807A84791E7800C31202ED504A
:1000FE0003751801E5187066C3E5169512FFE51530
:10010E009511FEE5149510FDE513950FFC7B807A95
:10011E009679987800C31202ED503F851612851518
:10012E001185141085130FD292851D16851C158509
:10013E001B14851A13C3E51D9516FFE51C9515FEB8
:10014E00E51B9514FDE51A9513FC7B207AA1790722
:10015E007800D31202ED50DDC292C291C292E51820
:10016E00B40102D292E51864026003020049D291F2
:10017E00D292851D16851C15851B14851A13C3E591
:10018E001D9516FFE51C9515FEE51B9514FDE51A4C
:10019E009513FC7B407A42790F7800D31202ED5012
:1001AE00DDC292851D16851C15851B14851A13C379
:1001BE00E51D9516FFE51C9515FEE51B9514FDE551
:1001CE001A9513FC7B807A84791E7800D31202ED87
:0701DE00500302004980D824
:1001F10002000EE493A3F8E493A34003F68001F216
:1002010008DFF48029E493A3F85407240CC8C3330E
:10021100C4540F4420C8834004F456800146F6DFDD
:10022100E4800B0102040810204080900271E47EFA
:10023100019360BCA3FF543F30E509541FFEE493D2
:10024100A360010ECF54C025E060A840B8E493A399
:10025100FAE493A3F8E493A3C8C582C8CAC583CAC4
:10026100F0A3C8C582C8CAC583CADFE9DEE780BE7C
:010298000065
:1002ED00EB9FF5F0EA9E42F0E99D42F0E89C45F067
:0102FD0022DE
:00000001FF
